:100000000C9468000C9402030C94DB020C94900096
:100010000C9490000C9490000C9490000C94900020
:100020000C9490000C9490000C9490000C94290374
:100030000C9490000C9490000C9490000C94900000
:100040000C9491020C9490000C94760B0C94500B31
:100050000C9490000C9490000C9490000C949000E0
:100060000C9490000C9490000000000023002600E7
:10007000290072740092740048940078C400000053
:100080000000240027002A000000000025002800AE
:100090002B00040404040404040402020202020209
:1000A000030303030303010204081020408001023C
:1000B00004081020010204081020000000080002BB
:1000C00001000003040700000000000000009E1073
:1000D00011241FBECFEFD8E0DEBFCDBF13E0A0E0FC
:1000E000B1E0ECE9F2E202C005900D92AE35B10745
:1000F000D9F727E0AEE5B3E001C01D92AB31B207FE
:10010000E1F710E0C8E6D0E004C02197FE010E94AC
:100110003811C736D107C9F70E94610E0C944C11F3
:100120000C94000008958BEF08959FB7F894809188
:100130006803882319F081508093680380916803D5
:10014000811103C08CB58F7B8CBD9FBF08958CB58A
:100150008F778CBD08958CB580688CBD08956EBD79
:1001600000000DB407FEFDCF8EB508959CB59C7FB1
:10017000282F2370922B9CBD2DB582FB992790F9D7
:10018000822F8E7F892B8DBD0895FC01738362833E
:100190000895FC01778366830895FC017583648369
:1001A000089580E00895FC0181850895FC01808513
:1001B0000895FC0187810895FC0186810895FC0162
:1001C000409595854923642B65870895FC016487D4
:1001D0000895FC0163870895FC0162870895FC017E
:1001E00064830895FC0165830895FC0122813381B5
:1001F00023303105D1F381E00895CF93DF93EC01F3
:10020000E881F9810280F381E02DCE0109958823F0
:10021000B9F3DF91CF91089581E00895CF92DF92F5
:10022000EF92FF920F931F93CF93DF93EC017B012B
:100230008A01E881F9810280F381E02D0995D82EA9
:10024000882331F1E114F104D9F001151105C1F051
:10025000CFB6F8948A8D90E00397F801208130E0C2
:10026000281739071CF08A8D84508083F80140815B
:1002700050E0BE01615E7F4FC7010E944311CFBEB7
:100280008FB7F894FE01E65EFE4F10821A8E8FBF84
:100290008D2DDF91CF911F910F91FF90EF90DF9007
:1002A000CF90089580916E0390916F03009711F0A5
:1002B0000C94230D089580916C0390916D03009729
:1002C00011F00C94230D089580916A0390916B03B3
:1002D000009711F00C94230D0895CF93DF93FC0148
:1002E000268137812115310579F02130310541F022
:1002F0002230310539F02330310531F49CE005C05E
:1003000094E003C098E001C090E08CB5837F982B07
:100310009CBD84819581019709F04AC08CB58062AB
:100320008CBD8281938101978430910528F4FC0172
:10033000E656FE4FC08101C0C1E08C2F0E94B6007E
:10034000DFB7F89480916803811127C0ECE9F0E0F1
:100350008491E0EBF0E09491E82FF0E0EE0FFF1FC6
:10036000E258FF4FA591B491EC91E92321F461E0AB
:100370008AE00E94D10B61E08AE00E94000C8CB5FB
:1003800080618CBD8CB580648CBD61E08DE00E9485
:10039000000C61E08BE00E94000C809168038F5F8D
:1003A00080936803DFBF8C2FDF91CF910C94B60050
:1003B0009CB59F7D9CBDB5CFCF93DF93EC018D891C
:1003C0009E89DC01ED91FC910680F781E02D099575
:1003D00061E08F890E94000C61E08F890E94D10B3F
:1003E00064E670E080E090E00E943C0C81E0DF91E8
:1003F000CF9108953FB7F89480917503909176035B
:10040000A0917703B091780326B5A89B05C02F3F34
:1004100019F00196A11DB11D3FBFBA2FA92F982F2A
:100420008827820F911DA11DB11DBC01CD0142E0A5
:10043000660F771F881F991F4A95D1F708952FB728
:10044000F89460917103709172038091730390919D
:1004500074032FBF08958F929F92AF92BF92CF9255
:10046000DF92EF92FF92CF93DF93EC016B010E943A
:100470001F024B015C01E12CF12C0E941F02DC01E8
:10048000CB0188199909AA09BB098C159D05AE05F0
:10049000BF0530F48A819B81039779F381E001C025
:1004A00080E0DF91CF91FF90EF90DF90CF90BF90F1
:1004B000AF909F908F9008958F929F92AF92BF922E
:1004C000CF92DF92EF92FF92CF93DF93EC016B011B
:1004D0000E941F024B015C01E12CF12C0E941F02C3
:1004E000DC01CB0188199909AA09BB098C159D0566
:1004F000AE05BF0550F4E881F9810280F381E02D5B
:10050000CE010995882351F301C080E0DF91CF919E
:10051000FF90EF90DF90CF90BF90AF909F908F9023
:1005200008951F920F920FB60F9211242F933F93AD
:100530008F939F93AF93BF938091710390917203B8
:10054000A0917303B09174033091700323E0230FE3
:100550002D3720F40196A11DB11D05C026E8230FFB
:100560000296A11DB11D2093700380937103909397
:100570007203A0937303B0937403809175039091F9
:100580007603A0917703B09178030196A11DB11D68
:100590008093750390937603A0937703B0937803C9
:1005A000BF91AF919F918F913F912F910F900FBE6F
:1005B0000F901F9018951F920F920FB60F92112453
:1005C0002F933F934F935F936F937F938F939F935B
:1005D000AF93BF93EF93FF93E0910201F09103017A
:1005E0000995FF91EF91BF91AF919F918F917F916D
:1005F0006F915F914F913F912F910F900FBE0F9090
:100600001F9018951F920F920FB60F9211242F93DF
:100610003F934F935F936F937F938F939F93AF938A
:10062000BF93EF93FF93E0910001F09101010995D1
:10063000FF91EF91BF91AF919F918F917F916F91BA
:100640005F914F913F912F910F900FBE0F901F9090
:1006500018951F920F920FB60F9211242F933F936C
:100660004F935F936F937F938F939F93AF93BF93BA
:10067000CF93DF93EF93FF9380910200909103005B
:10068000049709F0CCC02091170030E0F901E6543E
:10069000FF4F8491F901EA55FF4FD491F901EE56CD
:1006A000FF4FC491CC2379F081110E94A80BEC2F4D
:1006B000F0E0EE0FFF1FE859FF4FA591B491EC91C8
:1006C000ED2381E009F480E0817090911A00892780
:1006D00029F090911F009F5F90931F0090911E0042
:1006E000981761F090B1903510F09DE101C09BE04A
:1006F00020B1920F90B980931E0003C080B18C5E30
:1007000080B980B1803A08F4DEC082B193B1969589
:10071000879593B982B980911F00853028F082B106
:1007200093B1986093B982B980B1805A80B9109220
:100730001F0081B1882309F466C084B18F5F84B93A
:100740008C3008F4C0C082B193B1982F9F73892F69
:1007500086958695887028E0280F281749F0E82F9D
:10076000F0E0E256FE4F3081931719F08F5FF5CF1E
:1007700080E020E1829FC001112422B133B196E0D4
:10078000369527959A95E1F7422F36952795369518
:100790002795287038E0320F321749F0E22FF0E049
:1007A000E256FE4F5081451719F02F5FF5CF20E03C
:1007B000822B909169009923B9F0E091690091E052
:1007C0009E0F90936900F0E085A39091690080915D
:1007D00068009817B0F011B881E080931C0080E0A9
:1007E00090E00E940B0D0DC080936800909168000E
:1007F000973008F45EC090916800943408F059C0B6
:10080000DCCF14B860C082B193B188339B4009F04B
:100810005AC081E081B914B81092690054C0809127
:10082000020090910300039709F04DC080916C0085
:1008300091E0980F90936C00811134C0E0916A00B0
:100840008091FB00E81770F080E090E00E940B0DB3
:10085000809113009091140001969093140080935E
:10086000130020C0F0E0E359FF4F608170E08091F9
:100870006B0091E0980F90936B0002C0759567959F
:100880008A95E2F76170809118000E94D10B8091E7
:100890006B00863038F010926B0080916A008F5F99
:1008A00080936A0080916C00883068F010926C0030
:1008B0000AC011B880910F0090911000019690939A
:1008C000100080930F00FF91EF91DF91CF91BF91C6
:1008D000AF919F918F917F916F915F914F913F91D8
:1008E0002F910F900FBE0F901F901895FF920F93AE
:1008F0001F93CF93DF93EC01162FF42E0FB7F894CC
:1009000060E08F890E94D10B8D899E89612F60687C
:10091000DC01ED91FC910190F081E02D0995182FFB
:100920008D899E89DC01ED91FC910190F081E02D93
:100930006F2D099561E08F890E94D10B0FBF812F28
:10094000DF91CF911F910F91FF900895CF93DF9387
:10095000FC01228133812130310549F0EC0140E076
:1009600061E00E94760481E090E09B838A8381E0CD
:10097000DF91CF910895CF92DF92EF92FF920F9384
:100980001F93CF93DF934C3F08F066C0142F072FBF
:10099000F62EEC01E881F9810484F585E02D0995B6
:1009A000CE010E94DD0C40E06DE0CE010E94760495
:1009B0004A8560E0CE010E9476044B8560E0CE015E
:1009C0000E9476044C8560E0CE010E9476044D853D
:1009D00060E0CE010E947604EFB6F89460E08F8963
:1009E0000E94D10B8D899E89DC01ED91FC910190D3
:1009F000F081E02D60E80995CF2CD02E012F015019
:100A000068F08D899E89F60161916F01DC01ED919D
:100A1000FC910190F081E02D0995F1CF61E08F8983
:100A20000E94D10BEFBE44E0410F62E2CE010E9472
:100A300076048A819B81039789F043E061E0CE01CF
:100A40000E94760440E460E4CE010E94760483E0D4
:100A500090E09B838A8302C080E001C081E0DF9147
:100A6000CF911F910F91FF90EF90DF90CF9008955D
:100A7000CF93DF93FC012281338123303105B9F01C
:100A8000EC0182819381049771F045E061E0CF0130
:100A90000E94760440E060E4CE010E94760484E087
:100AA00090E09B838A83C65EDE4F888101C080E030
:100AB000DF91CF9108950F931F93CF93DF93EC01B4
:100AC000162F0FB7F89460E08F890E94D10B8D89A3
:100AD0009E89612F6F77DC01ED91FC910190F0818F
:100AE000E02D09958D899E89DC01ED91FC910190A5
:100AF000F081E02D60E00995182F61E08F890E9458
:100B0000D10B0FBF812FDF91CF911F910F910895CE
:100B1000EF92FF920F931F93CF93DF9300D01F921A
:100B2000CDB7DEB78C010E94DC01E82E811102C036
:100B3000E12C90C0F801808D823029F08330C1F71C
:100B4000FF24F39401C0F12C40E861E0C8010E9449
:100B500076046AE070E080E090E00E943C0C61E086
:100B6000C8010E945B05803819F760E0F801808DAC
:100B70000E94000CF801818D8F3F49F48091690338
:100B80008430B0F691E0980F90936903818FF8015B
:100B9000818DE82FF0E0EE0FFF1FE659FC4F118327
:100BA0000083811103C064E671E00AC0813019F44A
:100BB0006BE571E005C0823009F0BACF62E571E003
:100BC0008F2D0E94F10C40E06EE0C8010E94760477
:100BD00040E06FE0C8010E947604C8010E94DD0C6D
:100BE00043E050E062E770E0CE0101960E940D11F3
:100BF00049816DE1C8010E9476044A816EE1C80115
:100C00000E9476044B8166E2C8010E94760440E0AF
:100C100060E2C8010E94760448E061E2C8010E94D7
:100C200076044CE666E0C8010E94760440E867E07E
:100C3000C8010E94760440E068E0C8010E94760482
:100C400044E06DE4C8010E94760448E869E0C80108
:100C50000E9476048E2D0F900F900F90DF91CF9110
:100C60001F910F91FF90EF900895FF920F931F93A4
:100C7000CF93DF93CDB7DEB7CA51D1400FB6F8940A
:100C8000DEBF0FBECDBF8BEFC65EDE4F8883CA517D
:100C9000D140AE01465E5E4FBE016F5F7F4F88EF71
:100CA00095E00E940E01882309F4BAC061E088E053
:100CB0000E94D10B60E072E083E195E00E945F0E3C
:100CC000BE016F5F7F4F83E195E00E944B0E63E1B1
:100CD00072E083E195E00E945F0E00910606002E0F
:100CE000000C110BC8010E94130E89818B3609F08C
:100CF00065C08A818E3609F099C0FB8080E3F812C6
:100D000095C0083E1F4F0CF491C06AE172E083E188
:100D100095E00E944B0E62E372E083E195E00E9451
:100D20004B0E84E0E4E0F1E0DE01A450BF4F0190FF
:100D30000D928A95E1F7ECEFF0E0EC0FFD1F349691
:100D40008AE1DF011D928A95E9F7C150DF4FF882F1
:100D5000CF5FD040C050DF4FF882C050D14083E316
:100D6000CF5FDE4F8883C150D1408C81CE5FDE4F94
:100D70008883C250D1408D81CD5FDE4F8883C350C0
:100D8000D1408E81CC5FDE4F8883C450D1404EE18C
:100D9000BE0164507F4F88EF95E00E94BB0488EF4E
:100DA00095E00E94F5006FE572E083E195E00E9416
:100DB0004B0E60E088E00E94D10B38C08437B1F55B
:100DC0008A81833699F58B81803381F58C818033DC
:100DD00069F58D81803351F58E81833339F580E05B
:100DE00090E011E3FC01EE0FFF1FEE0FFF1FE7582D
:100DF000FC4F2081203379F410838F818183888593
:100E00008283898583836CE672E083E195E00E94AA
:100E10004B0E85E690E00196843691051CF306C0E2
:100E20006CE772E083E195E00E944B0EC65EDE4FF8
:100E30000FB6F894DEBF0FBECDBFDF91CF911F91EB
:100E40000F91FF900895CF92DF92EF92FF920F9350
:100E50001F93CF93DF93CDB7DEB7CA51D1400FB602
:100E6000F894DEBF0FBECDBF8091660390916703FB
:100E700003970CF067C00E941F02C0906203D090DD
:100E80006303E0906403F0906503DC01CB018C19EF
:100E90009D09AE09BF09813A9F40A105B10558F0EF
:100EA0000E941F0260936203709363038093640344
:100EB0009093650347C00E941F02DC01CB018C198F
:100EC0009D09AE09BF09803A9F40A105B105D1F542
:100ED00068E872E083E195E00E944B0E84E0E2E274
:100EE000F1E0DE01119601900D928A95E1F7FE0185
:100EF00035968AE1DF011D928A95E9F780E38C83BC
:100F00008D8383E38E834EE1BE016F5F7F4F88EF59
:100F100095E00E94BB0488EF95E00E94F5000E94D6
:100F20001F02609362037093630380936403909342
:100F30006503809166039091670301969093670320
:100F40008093660388EF95E00E943805882309F4B2
:100F500067C18BEFC65EDE4F8883CA51D140AE01B8
:100F6000465E5E4FBE016F5F7F4F88EF95E00E9447
:100F70000E01882309F44EC161E088E00E94D10B84
:100F800060E072E083E195E00E945F0EBE016F5F5A
:100F90007F4F83E195E00E944B0E89818B36A9F447
:100FA0008A81873691F48B81813379F48C81803307
:100FB00061F48D81803349F48E81833331F461EBA8
:100FC00072E083E195E00E945F0E8E010F5F1F4F7C
:100FD0007E01B0E1EB0EF11CF80141918F0150E070
:100FE00060E070E02AE083E195E00E94CA0D68E1CC
:100FF00072E083E195E00E945F0EE016F10661F772
:1010000068E172E083E195E00E944B0E80E090E0A1
:101010000AE14CEFE42EF12CEC0EFD1EF4E0EF0E95
:10102000F11C10E353E3D52EFC01EE0FFF1FEE0F72
:10103000FF1FE758FC4F2081213309F051C03F8149
:10104000218132134DC038852281321349C0398540
:101050002381321345C0BE016F5F7F4F83E195E06E
:101060000E944B0E84E0E0E4F1E0DE01A450BF4FAB
:1010700001900D928A95E1F7D701E02F1D92EA9534
:10108000E9F7C150DF4F1883CF5FD040C050DF4F2A
:101090001883C050D140CF5FDE4FD882C150D140BD
:1010A0008F81CE5FDE4F8883C250D1408885CD5F6F
:1010B000DE4F8883C350D1408985CC5FDE4F888363
:1010C000C450D1404EE1BE0164507F4F88EF95E09F
:1010D0000E94BB0488EF95E00E94F50085E690E051
:1010E0000196843691050CF49FCF89818B3609F0E7
:1010F0005BC08A818E3609F088C01B81103309F0ED
:1011000084C061ED72E083E195E00E944B0E84E0C3
:10111000EEE5F1E0DE01A450BF4F01900D928A95FB
:10112000E1F7ECEFF0E0EC0FFD1F34968AE1DF0110
:101130001D928A95E9F7C150DF4F1883CF5FD040E9
:10114000C050DF4F1883C050D14083E3CF5FDE4FE4
:101150008883C150D1408C81CE5FDE4F8883C250DE
:10116000D1408D81CD5FDE4F8883C350D1408E81C9
:10117000CC5FDE4F8883C450D1404EE1BE01645045
:101180007F4F88EF95E00E94BB0488EF95E00E94B6
:10119000F5006FE572E083E195E00E944B0E60E0A0
:1011A00088E00E94D10B31C0843779F58A8183367B
:1011B00061F58B81803349F58C81803331F58D81E8
:1011C000803319F58E81833301F580E090E011E3DF
:1011D000FC01EE0FFF1FEE0FFF1FE758FC4F2081B1
:1011E000203379F410838F81818388858283898578
:1011F00083836CE672E083E195E00E944B0E85E606
:1012000090E00196843691051CF360E088E00E942E
:10121000D10B06C06CE772E083E195E00E944B0EB3
:10122000C65EDE4F0FB6F894DEBF0FBECDBFDF91B6
:10123000CF911F910F91FF90EF90DF90CF90089585
:10124000CF92DF92EF92FF920F931F93CF93DF9392
:10125000CDB7DEB7CA51D1400FB6F894DEBF0FBE8E
:10126000CDBF0E941F02C0905E03D0905F03E0904C
:101270006003F0906103DC01CB018C199D09AE097C
:10128000BF09813A9F40A105B105A0F50E941F0248
:10129000DC01CB018C199D09AE09BF09803A9F4042
:1012A000A105B10589F564EE72E083E195E00E9445
:1012B0004B0E84E0ECE7F1E0DE01119601900D9217
:1012C0008A95E1F7FE0135968AE1DF011D928A9544
:1012D000E9F780E38C838D8383E38E834EE1BE0147
:1012E0006F5F7F4F88EF95E00E94BB0488EF95E029
:1012F0000E94F5000E941F0260935E0370935F03DB
:10130000809360039093610388EF95E00E94380515
:10131000882309F4CDC08BEFC65EDE4F8883CA51A7
:10132000D140AE01465E5E4FBE016F5F7F4F88EFDA
:1013300095E00E940E01882309F4B4C061E088E0C2
:101340000E94D10B60E072E083E195E00E945F0EA5
:10135000BE016F5F7F4F83E195E00E944B0E6FE00F
:1013600073E083E195E00E945F0E00910606002E77
:10137000000C110BC8010E94130E89818B3609F0F5
:101380005FC08A818E3609F093C0FB80B0E3FB1208
:101390008FC0033E1F4F0CF48BC069E173E083E103
:1013A00095E00E944B0E84E0ECE7F1E0DE01A450F2
:1013B000BF4F01900D928A95E1F7ECEFF0E0EC0F52
:1013C000FD1F34968AE1DF011D928A95E9F7C1502D
:1013D000DF4FF882CF5FD040C050DF4FF882C0505F
:1013E000D14083E3CF5FDE4F8883C150D1408C81F1
:1013F000CE5FDE4F8883C250D1408D81CD5FDE4FFE
:101400008883C350D1408E81CC5FDE4F8883C45027
:10141000D1404EE1BE0164507F4F88EF95E00E94BD
:10142000BB0488EF95E00E94F5006FE572E083E170
:1014300095E00E944B0E60E088E00E94D10B38C01E
:101440008437B1F58A81833699F58B81803381F5B4
:101450008C81803369F58D81803351F58E818333A2
:1014600039F580E090E011E3FC01EE0FFF1FEE0F75
:10147000FF1FE758FC4F2081203379F410838F81C0
:10148000818388858283898583836CE672E083E12A
:1014900095E00E944B0E85E690E00196843691051A
:1014A0001CF306C06CE772E083E195E00E944B0EEE
:1014B000C65EDE4F0FB6F894DEBF0FBECDBFDF9124
:1014C000CF911F910F91FF90EF90DF90CF900895F3
:1014D000089580E090E00895FC01538D448D252F00
:1014E00030E0842F90E0821B930B541710F0CF96BE
:1014F000089501970895FC01918D828D981761F0F0
:10150000828DDF01A80FB11D5D968C91928D9F5F3A
:101510009F73928F90E008958FEF9FEF0895FC01E5
:10152000918D828D981731F0828DE80FF11D858D98
:1015300090E008958FEF9FEF0895FC01918D228D2B
:10154000892F90E0805C9F4F821B91098F739927B0
:10155000089583E195E00E949D0A21E0892B09F41A
:1015600020E0822F0895FC01848DDF01A80FB11DBA
:10157000A35ABF4F2C91848D90E001968F739927C9
:10158000848FA689B7892C93A089B1898C918370A7
:1015900080648C93938D848D981306C00288F389A0
:1015A000E02D80818F7D80830895EF92FF920F93CD
:1015B0001F93CF93DF93EC0181E0888F9B8D8C8DFF
:1015C000981305C0E889F989808185FD26C0F62E2B
:1015D0000B8D10E00F5F1F4F0F731127E02E8C8DC6
:1015E000E8120CC00FB607FCFACFE889F9898081B0
:1015F00085FFF5CFCE010E94B30AF1CF8B8DFE019E
:10160000E80FF11DE35AFF4FF0829FB7F8940B8F5C
:10161000EA89FB89808180620AC09FB7F894EE89CD
:10162000FF896083E889F989808183708064808381
:101630009FBF81E090E0DF91CF911F910F91FF90CC
:10164000EF900895CF93DF93EC01888D8823C9F044
:10165000EA89FB89808185FD05C0A889B9898C91BB
:1016600086FD0FC00FB607FCF5CF808185FFF2CF56
:10167000A889B9898C9185FFEDCFCE010E94B30A6C
:10168000E7CFDF91CF91089580E090E0892B29F09A
:101690000E94A90A81110C94000008950E943E1135
:1016A0001F920F920FB60F9211242F933F934F93D7
:1016B0005F936F937F938F939F93AF93BF93EF93BA
:1016C000FF9383E195E00E94B30AFF91EF91BF91F0
:1016D000AF919F918F917F916F915F914F913F91CA
:1016E0002F910F900FBE0F901F9018951F920F9281
:1016F0000FB60F9211242F938F939F93EF93FF9325
:10170000E0912305F09124058081E0912905F09175
:101710002A0582FD12C0908180912C058F5F8F7306
:1017200020912D05821751F0E0912C05F0E0ED5E3F
:10173000FA4F958F80932C0501C08081FF91EF9126
:101740009F918F912F910F900FBE0F901F90189522
:10175000833081F028F4813099F08230A1F008952F
:101760008730A9F08830B9F08430D1F480918000BE
:101770008F7D03C0809180008F77809380000895D3
:1017800084B58F7702C084B58F7D84BD0895809124
:10179000B0008F7703C08091B0008F7D8093B00040
:1017A00008951F93CF93DF93282F30E0F901E6547B
:1017B000FF4F8491F901EA55FF4FD491F901EE569C
:1017C000FF4FC491CC23C1F0162F81110E94A80BAA
:1017D000EC2FF0E0EE0FFF1FE857FF4FA591B491FB
:1017E0009FB7F894111104C08C91D095D82302C0F2
:1017F000EC91DE2BDC939FBFDF91CF911F91089579
:10180000CF93DF9390E0FC01EA55FF4F2491FC0158
:10181000EE56FF4F8491882361F190E0880F991F65
:10182000FC01E258FF4FC591D491FC01E857FF4FEE
:10183000A591B491611109C09FB7F8948881209552
:1018400082238883EC912E230BC0623061F49FB712
:10185000F8948881322F309583238883EC912E2B46
:101860002C939FBF06C08FB7F894E8812E2B288356
:101870008FBFDF91CF9108958F929F92AF92BF92C9
:10188000CF92DF92EF92FF926B017C010E94FA01EE
:101890004B015C01C114D104E104F104F1F00E9498
:1018A000FA01DC01CB0188199909AA09BB09883E14
:1018B0009340A105B10570F321E0C21AD108E108F7
:1018C000F10888EE880E83E0981EA11CB11CC1149B
:1018D000D104E104F10419F7DDCFFF90EF90DF9020
:1018E000CF90BF90AF909F908F900895CF92DF924E
:1018F000EF92FF920F931F93CF93DF936C017A01C6
:101900008B01C0E0D0E0CE15DF0581F0D8016D91EC
:101910008D01D601ED91FC910190F081E02DC60181
:101920000995892B11F02196EECF7E01C701DF9139
:10193000CF911F910F91FF90EF90DF90CF9008957E
:101940006115710579F0FB0101900020E9F73197ED
:10195000AF01461B570BDC01ED91FC910280F38136
:10196000E02D099480E090E00895E3E1F5E0A0899E
:10197000B18982E08C93A485B5851C92A685B78534
:101980008FEC8C93108EA489B58986E08C93A28904
:10199000B3898C9180618C93A289B3898C91886082
:1019A0008C93A289B3898C9180688C930288F38987
:1019B000E02D80818F7D80830895CF93DF93FC019C
:1019C000228133812230310549F0EC0141E061E0B0
:1019D0000E94760482E090E09B838A83DF91CF911E
:1019E00008958230B8F4E82FF0E0EE0FFF1FE050CA
:1019F000FF4F71836083813039F08091690083608B
:101A000080936900E89A0895809169008C608093C2
:101A10006900E99A0895CF93DF93FC012281338115
:101A20002230310569F0EC01638D818D0E94D10B6C
:101A300060E0888D0E94D10B82E090E09B838A83D6
:101A4000DF91CF910895DF92EF92FF920F931F9352
:101A5000CF93DF93EC0162E10E945B052A813B8119
:101A60002430310521F4982F907A09F069C02A8139
:101A70003B812430310509F074C086FF72C063E1F8
:101A8000CE010E945B05082F60E1CE010E945B053C
:101A9000482F6DE0CE010E947604DFB6F89460E036
:101AA0008F890E94D10B8D899E89DC01ED91FC917B
:101AB0000190F081E02D60E009957E01BBE1EB0E25
:101AC000F11C102F112379F08D899E89DC01ED9195
:101AD000FC910190F081E02D60E00995F701819380
:101AE0007F011150EFCF61E08F890E94D10BDFBEE3
:101AF0000A8F4FEF62E1CE010E9476046AE1CE01C7
:101B00000E945B0589588E878A8DFE01E65EFE4F36
:101B1000843090F08B8D8E838C8D8F838D8D888714
:101B20008E8D89878D81811129C09E818C81981726
:101B300029F18E818F3F11F18081882331F026C0F9
:101B40008F8598890196988B8F874FEF62E1CE0140
:101B5000DF91CF911F910F91FF90EF90DF900C9448
:101B600076042A813B812330310579F783FFEDCF5D
:101B70008B899C8901969C8B8B8B08C089899A895B
:101B800001969A8B898B81E08083D6CFCE010E940B
:101B9000DD0CDBCF8F929F92AF92BF92EF92FF92BC
:101BA0000F931F93CF93DF93CDB7DEB7A1970FB6F7
:101BB000F894DEBF0FBECDBF7C01FA01CB0119A2A4
:101BC000223008F42AE08E010F5D1F4F822E912CE7
:101BD000A12CB12CBF01A50194010E941611F9019D
:101BE000CA01015011096A3014F4605D01C0695CDA
:101BF000D8016C93232B242B252B61F7B801C70147
:101C00000E94A00CA1960FB6F894DEBF0FBECDBF08
:101C1000DF91CF911F910F91FF90EF90BF90AF9008
:101C20009F908F900895CF92DF92EF92FF92CF9383
:101C3000DF936C01990FEE08FF08F7FE15C06DE207
:101C400083E195E00E94D50AEC0144275527BA01AB
:101C50004C195D096E097F092AE083E195E00E9435
:101C6000CA0DC80FD91F08C02AE0B701A60183E139
:101C700095E00E94CA0DEC016AE373E083E195E010
:101C80000E94A00C8C0F9D1FDF91CF91FF90EF90D1
:101C9000DF90CF9008950F931F93CF93DF93EC01C4
:101CA0000E94A00C8C016AE373E0CE010E94A00C9C
:101CB000800F911FDF91CF911F910F9108950C9488
:101CC000A00C789484B5826084BD84B5816084BDA5
:101CD00085B5826085BD85B5816085BD80916E00CA
:101CE000816080936E0010928100809181008260FB
:101CF0008093810080918100816080938100809138
:101D000080008160809380008091B1008460809326
:101D1000B1008091B00081608093B00080917A0022
:101D2000846080937A0080917A00826080937A0048
:101D300080917A00816080937A0080917A00806837
:101D400080937A001092C1001092F4051092F5056C
:101D50001092F6051092F7051092B2051092B30595
:101D60001092B4051092B5050E941F026B017C0110
:101D70004B015C0128EB820E2BE0921EA11CB11CD2
:101D80000E941F026C157D058E059F0528F08616A2
:101D90009706A806B906A0F783E195E09093F305AE
:101DA0008093F2050E94B50C0E941F026093B20559
:101DB0007093B3058093B4059093B5056BE273E01F
:101DC0008091F2059091F3050E945F0E0E941F0220
:101DD0006B017C014B015C013AE0830E911CA11C5C
:101DE000B11C0E941F026C157D058E059F0528F011
:101DF00086169706A806B906A0F781E08093C60567
:101E000061E088E00E94000C0E94B50C88EF95E02C
:101E10000E948805811106C06DE373E083E195E0BF
:101E20000E944B0EE9E7F3E080E3808381838283A5
:101E30008383349645E0E930F407B9F784EF882EC0
:101E400099249394A12CB12C01E010E0C2E0D0E0E1
:101E50000E941F02672B682B692B41F40E941F020E
:101E6000623071058105910508F40AC10E941F02C4
:101E7000C0900F05D0901005E0901105F09012056C
:101E80006C157D058E059F0540F460930F057093DA
:101E900010058093110590931205C0900F05D09006
:101EA0001005E0901105F09012059B01AC012C1972
:101EB0003D094E095F0969017A013AEFC316D10461
:101EC000E104F10408F4DCC060930F057093100581
:101ED00080931105909312058092BE059092BF05E4
:101EE000A092C005B092C1051092C2051092C30520
:101EF0001092C4051092C5058091B6059091B70562
:101F0000A091B805B091B9058093BA059093BB052F
:101F1000A093BC05B093BD050E941F026093B60557
:101F20007093B7058093B8059093B9050E941F027E
:101F30006093B2057093B3058093B4059093B50593
:101F40000E941F026B017C0169E473E08091F2053D
:101F50009091F3050E945F0E2AE041E050E060E0BE
:101F600070E08091F2059091F3050E94CA0D60E542
:101F700073E08091F2059091F3050E945F0E2AE0D4
:101F8000B701A6018091F2059091F3050E94CA0D58
:101F900062E573E08091F2059091F3050E945F0E77
:101FA0008091B6059091B705A091B805B091B9059B
:101FB000B701A601481B590B6A0B7B0B2AE08091E5
:101FC000F2059091F3050E94CA0D62E573E08091DD
:101FD000F2059091F3050E945F0E4091B605509175
:101FE000B7056091B8057091B9058091BA059091D7
:101FF000BB05A091BC05B091BD05481B590B6A0BF0
:102000007B0B2AE08091F2059091F3050E94CA0DA6
:1020100064E573E08091F2059091F3050E945F0EF4
:102020000E941F02AB01BC012AE08091F205909151
:10203000F3050E94CA0D66E573E08091F205909168
:10204000F3050E944B0E0E941F026B017C012B01C5
:102050003C0145E0440E511C611C711C0E941F0292
:102060006C157D058E059F0508F061C00E941F025A
:102070006093B6057093B7058093B8059093B90542
:1020800080910D0590910E05892B71F40E941F021D
:102090006093090570930A0580930B0590930C05D6
:1020A00010930E0500930D0580910D0590910E057E
:1020B000019791F50E941F02C0900905D0900A0572
:1020C000E0900B05F0900C05DC01CB018C199D090B
:1020D000AE09BF0980319742A105B10548F488EFE8
:1020E00095E00E9438058823B9F00E94350614C097
:1020F0000E941F02DC01CB018C199D09AE09BF09AA
:1021000080329E44A105B10518F40E94200904C044
:10211000D0930E05C0930D0580910D0590910E058D
:10212000029711F40E9423070E94440B91CE461699
:1021300057066806790608F091CF98CFE3E1F5E0FD
:102140001382128288EE93E0A0E0B0E0848395834E
:10215000A683B78382EB91E09183808385EC90E046
:102160009587848784EC90E09787868780EC90E061
:10217000918B808B81EC90E0938B828B82EC90E052
:10218000958B848B86EC90E0978B868B118E128ECC
:10219000138E148EE0EBF5E01682178210861186FE
:1021A000128613861486158616861786108A118A5B
:1021B000128A138A148A158AA3E1B7E013961C9237
:1021C0001E92129715961C921E92149717961C92A7
:1021D0001E92169784EC91E011969C938E93E8EFF3
:1021E000F5E0138212828FEF8483828783871486BF
:1021F0001586108A1786128A118A148A138AB68B5A
:10220000A58B9AE0978B28ED31E0318320831092E3
:10221000120792E0908F818F0895FB01DC0102C0CC
:1022200005900D9241505040D8F70895A1E21A2E22
:10223000AA1BBB1BFD010DC0AA1FBB1FEE1FFF1F6A
:10224000A217B307E407F50720F0A21BB30BE40BBA
:10225000F50B661F771F881F991F1A9469F7609501
:102260007095809590959B01AC01BD01CF010895BB
:10227000EE0FFF1F0590F491E02D099481E090E0AE
:10228000F8940C944C11FB01DC0102C001900D92FA
:0C22900041505040D8F70895F894FFCF5B
:10229C00920092006B7431000000000000000000FE
:1022AC000000000000000000000000000000000022
:1022BC0000006B6730000000000000000000000010
:1022CC000000000000000000000000000000000002
:1022DC00646E3100000000000000000000000000EF
:1022EC0000000000000000000000000000006B7403
:1022FC00330000000000000000000000000000009F
:10230C000000000000000000000000006B743200B0
:10231C0000000000000000000000000000000000B1
:10232C0000000000000000000000050004040D0E79
:10233C00131516191A1C232526292A2C32340000B1
:10234C000000D50A760C6C0A220B9D0A7B0A8F0AB8
:10235C0000000000AF00AB00A7006D019500CD00A0
:10236C00C900C50000000000880538050E01BB043B
:10237C009300FD00F5002B025C02EF00EC00E9007D
:10238C00E600DF00F200DC00D900D600D300A60482
:10239C0074696E2068696575206775692064656E5F
:1023AC003A2000525353493A2000746875632068F0
:1023BC0069656E206B6574206E6F69206D75632086
:1023CC0031006E6F646520636F6E20636F207468DC
:1023DC0065206B6574206E6F6920766F6920746957
:1023EC006E2068696575206D75632063616F00539D
:1023FC00656E742061207265706C79006C75752047
:10240C006964206E6F646520636F6E00726563761D
:10241C00206661696C656400677569206475206C61
:10242C006965752079657520636175206E6F6465CB
:10243C0020636F6E20677569206475206C69657503
:10244C00006475206C696575206E68616E2064751A
:10245C006F63207475206E6F646520636F6E3A2015
:10246C000074687563206869656E206B6574206EF6
:10247C006F692000677569206475206C696575202B
:10248C0079657520636175206E6F646520636F6E6E
:10249C00206B6574206E6F69206D7563203200525D
:1024AC005353492061613A20007468756320686950
:1024BC00656E206B6574206E6F6900564D445056E6
:1024CC005F317C315F564D4450560D0A00696E6980
:1024DC0074206661696C656400564D4450455F001C
:0E24EC003A323A007C005F564D4450450000E5
:00000001FF
