:100000000C9468000C9402030C94DB020C94900096
:100010000C9490000C9490000C9490000C94900020
:100020000C9490000C9490000C9490000C94290374
:100030000C9490000C9490000C9490000C94900000
:100040000C9491020C9490000C943A0B0C94140BA9
:100050000C9490000C9490000C9490000C949000E0
:100060000C9490000C9490000000000023002600E7
:10007000290072740092740048940078C400000053
:100080000000240027002A000000000025002800AE
:100090002B00040404040404040402020202020209
:1000A000030303030303010204081020408001023C
:1000B00004081020010204081020000000080002BB
:1000C00001000003040700000000000000006210AF
:1000D00011241FBECFEFD8E0DEBFCDBF13E0A0E0FC
:1000E000B1E0E4E2F2E202C005900D92AA30B1075D
:1000F000D9F726E0AAE0B3E001C01D92A73CB20701
:10010000E1F710E0C8E6D0E004C02197FE010E94AC
:10011000FC10C736D107C9F70E94250E0C941011A8
:100120000C94000008958BEF08959FB7F894809188
:100130001403882319F081508093140380911403D1
:10014000811103C08CB58F7B8CBD9FBF08958CB58A
:100150008F778CBD08958CB580688CBD08956EBD79
:1001600000000DB407FEFDCF8EB508959CB59C7FB1
:10017000282F2370922B9CBD2DB582FB992790F9D7
:10018000822F8E7F892B8DBD0895FC01738362833E
:100190000895FC01778366830895FC017583648369
:1001A000089580E00895FC0181850895FC01808513
:1001B0000895FC0187810895FC0186810895FC0162
:1001C000409595854923642B65870895FC016487D4
:1001D0000895FC0163870895FC0162870895FC017E
:1001E00064830895FC0165830895FC0122813381B5
:1001F00023303105D1F381E00895CF93DF93EC01F3
:10020000E881F9810280F381E02DCE0109958823F0
:10021000B9F3DF91CF91089581E00895CF92DF92F5
:10022000EF92FF920F931F93CF93DF93EC017B012B
:100230008A01E881F9810280F381E02D0995D82EA9
:10024000882331F1E114F104D9F001151105C1F051
:10025000CFB6F8948A8D90E00397F801208130E0C2
:10026000281739071CF08A8D84508083F80140815B
:1002700050E0BE01615E7F4FC7010E940711CFBEF3
:100280008FB7F894FE01E65EFE4F10821A8E8FBF84
:100290008D2DDF91CF911F910F91FF90EF90DF9007
:1002A000CF90089580911A0390911B03009711F04D
:1002B0000C94E70C0895809118039091190300970E
:1002C00011F00C94E70C0895809116039091170398
:1002D000009711F00C94E70C0895CF93DF93FC0185
:1002E000268137812115310579F02130310541F022
:1002F0002230310539F02330310531F49CE005C05E
:1003000094E003C098E001C090E08CB5837F982B07
:100310009CBD84819581019709F04AC08CB58062AB
:100320008CBD8281938101978430910528F4FC0172
:10033000E656FE4FC08101C0C1E08C2F0E94B6007E
:10034000DFB7F89480911403811127C0ECE9F0E045
:100350008491E0EBF0E09491E82FF0E0EE0FFF1FC6
:10036000E258FF4FA591B491EC91E92321F461E0AB
:100370008AE00E94950B61E08AE00E94C40B8CB574
:1003800080618CBD8CB580648CBD61E08DE00E9485
:10039000C40B61E08BE00E94C40B809114038F5F5B
:1003A00080931403DFBF8C2FDF91CF910C94B600A4
:1003B0009CB59F7D9CBDB5CFCF93DF93EC018D891C
:1003C0009E89DC01ED91FC910680F781E02D099575
:1003D00061E08F890E94C40B61E08F890E94950BB8
:1003E00064E670E080E090E00E94000C81E0DF9124
:1003F000CF9108953FB7F894809121039091220303
:10040000A0912303B091240326B5A89B05C02F3FDC
:1004100019F00196A11DB11D3FBFBA2FA92F982F2A
:100420008827820F911DA11DB11DBC01CD0142E0A5
:10043000660F771F881F991F4A95D1F708952FB728
:10044000F89460911D0370911E0380911F03909199
:1004500020032FBF08958F929F92AF92BF92CF92A9
:10046000DF92EF92FF92CF93DF93EC016B010E943A
:100470001F024B015C01E12CF12C0E941F02DC01E8
:10048000CB0188199909AA09BB098C159D05AE05F0
:10049000BF0530F48A819B81039779F381E001C025
:1004A00080E0DF91CF91FF90EF90DF90CF90BF90F1
:1004B000AF909F908F9008958F929F92AF92BF922E
:1004C000CF92DF92EF92FF92CF93DF93EC016B011B
:1004D0000E941F024B015C01E12CF12C0E941F02C3
:1004E000DC01CB0188199909AA09BB098C159D0566
:1004F000AE05BF0550F4E881F9810280F381E02D5B
:10050000CE010995882351F301C080E0DF91CF919E
:10051000FF90EF90DF90CF90BF90AF909F908F9023
:1005200008951F920F920FB60F9211242F933F93AD
:100530008F939F93AF93BF9380911D0390911E0360
:10054000A0911F03B091200330911C0323E0230FDF
:100550002D3720F40196A11DB11D05C026E8230FFB
:100560000296A11DB11D20931C0380931D0390933F
:100570001E03A0931F03B093200380912103909149
:100580002203A0912303B09124030196A11DB11D64
:100590008093210390932203A0932303B093240319
:1005A000BF91AF919F918F913F912F910F900FBE6F
:1005B0000F901F9018951F920F920FB60F92112453
:1005C0002F933F934F935F936F937F938F939F935B
:1005D000AF93BF93EF93FF93E0910201F09103017A
:1005E0000995FF91EF91BF91AF919F918F917F916D
:1005F0006F915F914F913F912F910F900FBE0F9090
:100600001F9018951F920F920FB60F9211242F93DF
:100610003F934F935F936F937F938F939F93AF938A
:10062000BF93EF93FF93E0910001F09101010995D1
:10063000FF91EF91BF91AF919F918F917F916F91BA
:100640005F914F913F912F910F900FBE0F901F9090
:1006500018951F920F920FB60F9211242F933F936C
:100660004F935F936F937F938F939F93AF93BF93BA
:10067000CF93DF93EF93FF9380910200909103005B
:10068000049709F0CCC02091170030E0F901E6543E
:10069000FF4F8491F901EA55FF4FD491F901EE56CD
:1006A000FF4FC491CC2379F081110E946C0BEC2F89
:1006B000F0E0EE0FFF1FE859FF4FA591B491EC91C8
:1006C000ED2381E009F480E0817090911A00892780
:1006D00029F090911F009F5F90931F0090911E0042
:1006E000981761F090B1903510F09DE101C09BE04A
:1006F00020B1920F90B980931E0003C080B18C5E30
:1007000080B980B1803A08F4DEC082B193B1969589
:10071000879593B982B980911F00853028F082B106
:1007200093B1986093B982B980B1805A80B9109220
:100730001F0081B1882309F466C084B18F5F84B93A
:100740008C3008F4C0C082B193B1982F9F73892F69
:1007500086958695887028E0280F281749F0E82F9D
:10076000F0E0E256FE4F3081931719F08F5FF5CF1E
:1007700080E020E1829FC001112422B133B196E0D4
:10078000369527959A95E1F7422F36952795369518
:100790002795287038E0320F321749F0E22FF0E049
:1007A000E256FE4F5081451719F02F5FF5CF20E03C
:1007B000822B909169009923B9F0E091690091E052
:1007C0009E0F90936900F0E085A39091690080915D
:1007D00068009817B0F011B881E080931C0080E0A9
:1007E00090E00E94CF0C0DC080936800909168004B
:1007F000973008F45EC090916800943408F059C0B6
:10080000DCCF14B860C082B193B188339B4009F04B
:100810005AC081E081B914B81092690054C0809127
:10082000020090910300039709F04DC080916C0085
:1008300091E0980F90936C00811134C0E0916A00B0
:100840008091FB00E81770F080E090E00E94CF0CF0
:10085000809113009091140001969093140080935E
:10086000130020C0F0E0E359FF4F608170E08091F9
:100870006B0091E0980F90936B0002C0759567959F
:100880008A95E2F76170809118000E94950B809123
:100890006B00863038F010926B0080916A008F5F99
:1008A00080936A0080916C00883068F010926C0030
:1008B0000AC011B880910F0090911000019690939A
:1008C000100080930F00FF91EF91DF91CF91BF91C6
:1008D000AF919F918F917F916F915F914F913F91D8
:1008E0002F910F900FBE0F901F901895FF920F93AE
:1008F0001F93CF93DF93EC01162FF42E0FB7F894CC
:1009000060E08F890E94950B8D899E89612F6068B8
:10091000DC01ED91FC910190F081E02D0995182FFB
:100920008D899E89DC01ED91FC910190F081E02D93
:100930006F2D099561E08F890E94950B0FBF812F64
:10094000DF91CF911F910F91FF900895CF93DF9387
:10095000FC01228133812130310549F0EC0140E076
:1009600061E00E94760481E090E09B838A8381E0CD
:10097000DF91CF910895CF92DF92EF92FF920F9384
:100980001F93CF93DF934C3F08F066C0142F072FBF
:10099000F62EEC01E881F9810484F585E02D0995B6
:1009A000CE010E94A10C40E06DE0CE010E947604D1
:1009B0004A8560E0CE010E9476044B8560E0CE015E
:1009C0000E9476044C8560E0CE010E9476044D853D
:1009D00060E0CE010E947604EFB6F89460E08F8963
:1009E0000E94950B8D899E89DC01ED91FC9101900F
:1009F000F081E02D60E80995CF2CD02E012F015019
:100A000068F08D899E89F60161916F01DC01ED919D
:100A1000FC910190F081E02D0995F1CF61E08F8983
:100A20000E94950BEFBE44E0410F62E2CE010E94AE
:100A300076048A819B81039789F043E061E0CE01CF
:100A40000E94760440E460E4CE010E94760483E0D4
:100A500090E09B838A8302C080E001C081E0DF9147
:100A6000CF911F910F91FF90EF90DF90CF9008955D
:100A7000CF93DF93FC012281338123303105B9F01C
:100A8000EC0182819381049771F045E061E0CF0130
:100A90000E94760440E060E4CE010E94760484E087
:100AA00090E09B838A83C65EDE4F888101C080E030
:100AB000DF91CF9108950F931F93CF93DF93EC01B4
:100AC000162F0FB7F89460E08F890E94950B8D89DF
:100AD0009E89612F6F77DC01ED91FC910190F0818F
:100AE000E02D09958D899E89DC01ED91FC910190A5
:100AF000F081E02D60E00995182F61E08F890E9458
:100B0000950B0FBF812FDF91CF911F910F9108950A
:100B1000EF92FF920F931F93CF93DF9300D01F921A
:100B2000CDB7DEB78C010E94DC01E82E811102C036
:100B3000E12C90C0F801808D823029F08330C1F71C
:100B4000FF24F39401C0F12C40E861E0C8010E9449
:100B500076046AE070E080E090E00E94000C61E0C2
:100B6000C8010E945B05803819F760E0F801808DAC
:100B70000E94C40BF801818D8F3F49F480911503C9
:100B80008430B0F691E0980F90931503818FF801AF
:100B9000818DE82FF0E0EE0FFF1FEA5EFC4F11831E
:100BA0000083811103C064E671E00AC0813019F44A
:100BB0006BE571E005C0823009F0BACF62E571E003
:100BC0008F2D0E94B50C40E06EE0C8010E947604B3
:100BD00040E06FE0C8010E947604C8010E94A10CA9
:100BE00043E050E062E770E0CE0101960E94D11030
:100BF00049816DE1C8010E9476044A816EE1C80115
:100C00000E9476044B8166E2C8010E94760440E0AF
:100C100060E2C8010E94760448E061E2C8010E94D7
:100C200076044CE666E0C8010E94760440E867E07E
:100C3000C8010E94760440E068E0C8010E94760482
:100C400044E06DE4C8010E94760448E869E0C80108
:100C50000E9476048E2D0F900F900F90DF91CF9110
:100C60001F910F91FF90EF900895FF920F931F93A4
:100C7000CF93DF93CDB7DEB7CA51D1400FB6F8940A
:100C8000DEBF0FBECDBF8BEFC65EDE4F8883CA517D
:100C9000D140AE01465E5E4FBE016F5F7F4F84EA7A
:100CA00095E00E940E01882309F4B4C061E088E059
:100CB0000E94950B60E072E08FEB94E00E94230E9F
:100CC000BE016F5F7F4F8FEB94E00E940F0E63E1D8
:100CD00072E08FEB94E00E94230E0091B205002E8B
:100CE000000C110BC8010E94D70D89818B3609F0C9
:100CF0005FC08A818E3609F093C0FB8080E3F812D2
:100D00008FC0083E1F4F0CF48BC06AE172E08FEB7E
:100D100094E00E940F0E84E0E4E0F1E0DE01A450D4
:100D2000BF4F01900D928A95E1F7ECEFF0E0EC0FE8
:100D3000FD1F34968AE1DF011D928A95E9F7C150C3
:100D4000DF4FF882CF5FD040C050DF4FF882C050F5
:100D5000D14083E3CF5FDE4F8883C150D1408C8187
:100D6000CE5FDE4F8883C250D1408D81CD5FDE4F94
:100D70008883C350D1408E81CC5FDE4F8883C450BE
:100D8000D1404EE1BE0164507F4F84EA95E00E945D
:100D9000BB0484EA95E00E94F50067E472E08FEB03
:100DA00094E00E940F0E60E088E00E94950B38C02E
:100DB0008437B1F58A81833699F58B81803381F54B
:100DC0008C81803369F58D81803351F58E81833339
:100DD00039F580E090E011E3FC01EE0FFF1FEE0F0C
:100DE000FF1FEB5DFC4F2081203379F410838C8151
:100DF00081838D8182838E81838364E572E08FEBB2
:100E000094E00E940F0E85E690E0019684369105ED
:100E10001CF306C064E672E08FEB94E00E940F0EB4
:100E2000C65EDE4F0FB6F894DEBF0FBECDBFDF91BA
:100E3000CF911F910F91FF900895CF92DF92EF9283
:100E4000FF920F931F93CF93DF93CDB7DEB7CA51B5
:100E5000D1400FB6F894DEBF0FBECDBF8091120314
:100E60009091130303970CF067C00E941F02C0907B
:100E70000E03D0900F03E0901003F0901103DC01FB
:100E8000CB018C199D09AE09BF09813A9F40A1058C
:100E9000B10558F00E941F0260930E0370930F0378
:100EA000809310039093110347C00E941F02DC013E
:100EB000CB018C199D09AE09BF09803A9F40A1055D
:100EC000B105D1F560E772E08FEB94E00E940F0E60
:100ED00084E0E2E2F1E0DE01119601900D928A9544
:100EE000E1F7FE0135968AE1DF011D928A95E9F767
:100EF00080E38C838D8383E38E834EE1BE016F5F3D
:100F00007F4F84EA95E00E94BB0484EA95E00E944A
:100F1000F5000E941F0260930E0370930F038093ED
:100F20001003909311038091120390911303019683
:100F3000909313038093120384EA95E00E9438058E
:100F4000882309F431C18BEFC65EDE4F8883CA5116
:100F5000D140AE01465E5E4FBE016F5F7F4F84EAB7
:100F600095E00E940E01882309F418C161E088E031
:100F70000E94950B60E072E08FEB94E00E94230EDC
:100F8000BE016F5F7F4F8FEB94E00E940F0E8E01CA
:100F90000F5F1F4F7E01B0E1EB0EF11CF801419194
:100FA0008F0150E060E070E02AE08FEB94E00E9457
:100FB0008E0D68E172E08FEB94E00E94230E0E1517
:100FC0001F0561F768E172E08FEB94E00E940F0E5D
:100FD00089818B3629F089818B3609F0DAC07FC090
:100FE0008A818736C1F78B818133A9F78C81803361
:100FF00091F78D81803379F78E81833361F780E0BB
:1010000090E00AE13CEFE32EF12CEC0EFD1EF4E043
:10101000EF0EF11C10E343E3D42EFC01EE0FFF1F93
:10102000EE0FFF1FEB5DFC4F2081213309F051C013
:101030003F81218132134DC038852281321349C04E
:1010400039852381321345C0BE016F5F7F4F8FEB1F
:1010500094E00E940F0E84E0E0E4F1E0DE01A45091
:10106000BF4F01900D928A95E1F7D701E02F1D92B5
:10107000EA95E9F7C150DF4F1883CF5FD040C050E9
:10108000DF4F1883C050D140CF5FDE4FD882C150B0
:10109000D1408F81CE5FDE4F8883C250D14088859A
:1010A000CD5FDE4F8883C350D1408985CC5FDE4F52
:1010B0008883C450D1404EE1BE0164507F4F84EA22
:1010C00095E00E94BB0484EA95E00E94F50085E665
:1010D00090E00196843691050CF49FCF7CCF8A81F5
:1010E0008E3609F056C01B81103309F052C06FE8EC
:1010F00072E08FEB94E00E940F0E84E0EEE5F1E0E9
:10110000DE01A450BF4F01900D928A95E1F7ECEFFC
:10111000F0E0EC0FFD1F34968AE1DF011D928A9505
:10112000E9F7C150DF4F1883CF5FD040C050DF4F89
:101130001883C050D14083E3CF5FDE4F8883C15016
:10114000D1408C81CE5FDE4F8883C250D1408D81EB
:10115000CD5FDE4F8883C350D1408E81CC5FDE4FA0
:101160008883C450D1404EE1BE0164507F4F84EA71
:1011700095E00E94BB0484EA95E00E94F50067E4D4
:1011800072E08FEB94E00E940F0E60E088E00E9416
:10119000950B60E088E00E94950B06C064E672E063
:1011A0008FEB94E00E940F0EC65EDE4F0FB6F894F0
:1011B000DEBF0FBECDBFDF91CF911F910F91FF908A
:1011C000EF90DF90CF900895CF92DF92EF92FF9251
:1011D0000F931F93CF93DF93CDB7DEB7CA51D140A2
:1011E0000FB6F894DEBF0FBECDBF0E941F02C090A5
:1011F0000A03D0900B03E0900C03F0900D03DC0188
:10120000CB018C199D09AE09BF09813A9F40A10508
:10121000B105A0F50E941F02DC01CB018C199D09CC
:10122000AE09BF09803A9F40A105B10589F562EA80
:1012300072E08FEB94E00E940F0E84E0ECE7F1E0A7
:10124000DE01119601900D928A95E1F7FE01359627
:101250008AE1DF011D928A95E9F780E38C838D8313
:1012600083E38E834EE1BE016F5F7F4F84EA95E09A
:101270000E94BB0484EA95E00E94F5000E941F02D0
:1012800060930A0370930B0380930C0390930D03F8
:1012900084EA95E00E943805882309F4CDC08BEFDD
:1012A000C65EDE4F8883CA51D140AE01465E5E4FB6
:1012B000BE016F5F7F4F84EA95E00E940E01882394
:1012C00009F4B4C061E088E00E94950B60E072E030
:1012D0008FEB94E00E94230EBE016F5F7F4F8FEB78
:1012E00094E00E940F0E6CEB72E08FEB94E00E9492
:1012F000230E0091B205002E000C110BC8010E94B4
:10130000D70D89818B3609F05FC08A818E3609F04E
:1013100093C0FB80B0E3FB128FC0033E1F4F0CF461
:101320008BC066EC72E08FEB94E00E940F0E84E0BD
:10133000ECE7F1E0DE01A450BF4F01900D928A95D9
:10134000E1F7ECEFF0E0EC0FFD1F34968AE1DF01EE
:101350001D928A95E9F7C150DF4FF882CF5FD040E8
:10136000C050DF4FF882C050D14083E3CF5FDE4FE3
:101370008883C150D1408C81CE5FDE4F8883C250BC
:10138000D1408D81CD5FDE4F8883C350D1408E81A7
:10139000CC5FDE4F8883C450D1404EE1BE01645023
:1013A0007F4F84EA95E00E94BB0484EA95E00E94A6
:1013B000F50067E472E08FEB94E00E940F0E60E0AE
:1013C00088E00E94950B38C08437B1F58A81833656
:1013D00099F58B81803381F58C81803369F58D811E
:1013E000803351F58E81833339F580E090E011E34D
:1013F000FC01EE0FFF1FEE0FFF1FEB5DFC4F208186
:10140000203379F410838C8181838D8182838E8156
:10141000838364E572E08FEB94E00E940F0E85E613
:1014200090E00196843691051CF306C064E672E0F4
:101430008FEB94E00E940F0EC65EDE4F0FB6F8945D
:10144000DEBF0FBECDBFDF91CF911F910F91FF90F7
:10145000EF90DF90CF900895089580E090E0089598
:10146000FC01538D448D252F30E0842F90E0821BAA
:10147000930B541710F0CF96089501970895FC012F
:10148000918D828D981761F0828DDF01A80FB11DBB
:101490005D968C91928D9F5F9F73928F90E00895DF
:1014A0008FEF9FEF0895FC01918D828D981731F099
:1014B000828DE80FF11D858D90E008958FEF9FEFED
:1014C0000895FC01918D228D892F90E0805C9F4FC3
:1014D000821B91098F73992708958FEB94E00E94E6
:1014E000610A21E0892B09F420E0822F0895FC0194
:1014F000848DDF01A80FB11DA35ABF4F2C91848D9D
:1015000090E001968F739927848FA689B7892C93D1
:10151000A089B1898C91837080648C93938D848D24
:10152000981306C00288F389E02D80818F7D808327
:101530000895EF92FF920F931F93CF93DF93EC01E7
:1015400081E0888F9B8D8C8D981305C0E889F9897F
:10155000808185FD26C0F62E0B8D10E00F5F1F4F9A
:101560000F731127E02E8C8DE8120CC00FB607FC0C
:10157000FACFE889F989808185FFF5CFCE010E94F5
:10158000770AF1CF8B8DFE01E80FF11DE35AFF4F73
:10159000F0829FB7F8940B8FEA89FB898081806283
:1015A0000AC09FB7F894EE89FF896083E889F989BA
:1015B00080818370806480839FBF81E090E0DF91B1
:1015C000CF911F910F91FF90EF900895CF93DF93EC
:1015D000EC01888D8823C9F0EA89FB89808185FD2B
:1015E00005C0A889B9898C9186FD0FC00FB607FC8C
:1015F000F5CF808185FFF2CFA889B9898C9185FFCD
:10160000EDCFCE010E94770AE7CFDF91CF91089509
:1016100080E090E0892B29F00E946D0A81110C94E2
:10162000000008950E9402111F920F920FB60F92B0
:1016300011242F933F934F935F936F937F938F93D7
:101640009F93AF93BF93EF93FF938FEB94E00E9430
:10165000770AFF91EF91BF91AF919F918F917F9109
:101660006F915F914F913F912F910F900FBE0F900F
:101670001F9018951F920F920FB60F9211242F935F
:101680008F939F93EF93FF93E091CF04F091D00459
:101690008081E091D504F091D60482FD12C0908142
:1016A0008091D8048F5F8F732091D904821751F0F5
:1016B000E091D804F0E0E154FB4F958F8093D8047B
:1016C00001C08081FF91EF919F918F912F910F9099
:1016D0000FBE0F901F901895833081F028F4813051
:1016E00099F08230A1F008958730A9F08830B9F0E0
:1016F0008430D1F4809180008F7D03C08091800080
:101700008F7780938000089584B58F7702C084B569
:101710008F7D84BD08958091B0008F7703C0809144
:10172000B0008F7D8093B00008951F93CF93DF9317
:10173000282F30E0F901E654FF4F8491F901EA5572
:10174000FF4FD491F901EE56FF4FC491CC23C1F065
:10175000162F81110E946C0BEC2FF0E0EE0FFF1F93
:10176000E857FF4FA591B4919FB7F894111104C0A9
:101770008C91D095D82302C0EC91DE2BDC939FBFD7
:10178000DF91CF911F910895CF93DF9390E0FC01FB
:10179000EA55FF4F2491FC01EE56FF4F84918823B8
:1017A00061F190E0880F991FFC01E258FF4FC5914D
:1017B000D491FC01E857FF4FA591B491611109C084
:1017C0009FB7F8948881209582238883EC912E23FB
:1017D0000BC0623061F49FB7F8948881322F309546
:1017E00083238883EC912E2B2C939FBF06C08FB749
:1017F000F894E8812E2B28838FBFDF91CF91089535
:101800008F929F92AF92BF92CF92DF92EF92FF9210
:101810006B017C010E94FA014B015C01C114D104EF
:10182000E104F104F1F00E94FA01DC01CB01881916
:101830009909AA09BB09883E9340A105B10570F337
:1018400021E0C21AD108E108F10888EE880E83E091
:10185000981EA11CB11CC114D104E104F10419F7B4
:10186000DDCFFF90EF90DF90CF90BF90AF909F9033
:101870008F900895CF92DF92EF92FF920F931F9374
:10188000CF93DF936C017A018B01C0E0D0E0CE15DD
:10189000DF0581F0D8016D918D01D601ED91FC91AC
:1018A0000190F081E02DC6010995892B11F0219658
:1018B000EECF7E01C701DF91CF911F910F91FF9075
:1018C000EF90DF90CF9008956115710579F0FB01DD
:1018D00001900020E9F73197AF01461B570BDC015F
:1018E000ED91FC910280F381E02D099480E090E07D
:1018F0000895EFEBF4E0A089B18982E08C93A48590
:10190000B5851C92A685B7858FEC8C93108EA48923
:10191000B58986E08C93A289B3898C9180618C9380
:10192000A289B3898C9188608C93A289B3898C91A8
:1019300080688C930288F389E02D80818F7D80837D
:101940000895CF93DF93FC0122813381223031054A
:1019500049F0EC0141E061E00E94760482E090E011
:101960009B838A83DF91CF9108958230B8F4E82F6A
:10197000F0E0EE0FFF1FE050FF4F71836083813076
:1019800039F080916900836080936900E89A089536
:10199000809169008C6080936900E99A0895CF93E3
:1019A000DF93FC01228133812230310569F0EC01A3
:1019B000638D818D0E94950B60E0888D0E94950B50
:1019C00082E090E09B838A83DF91CF910895DF923C
:1019D000EF92FF920F931F93CF93DF93EC0162E19D
:1019E0000E945B052A813B812430310521F4982F28
:1019F000907A09F069C02A813B812430310509F0D1
:101A000074C086FF72C063E1CE010E945B05082F9F
:101A100060E1CE010E945B05482F6DE0CE010E947F
:101A20007604DFB6F89460E08F890E94950B8D896B
:101A30009E89DC01ED91FC910190F081E02D60E048
:101A400009957E01BBE1EB0EF11C102F112379F0FB
:101A50008D899E89DC01ED91FC910190F081E02D52
:101A600060E00995F70181937F011150EFCF61E0AC
:101A70008F890E94950BDFBE0A8F4FEF62E1CE0186
:101A80000E9476046AE1CE010E945B0589588E8728
:101A90008A8DFE01E65EFE4F843090F08B8D8E8342
:101AA0008C8D8F838D8D88878E8D89878D81811117
:101AB00029C09E818C81981729F18E818F3F11F169
:101AC0008081882331F026C08F8598890196988B74
:101AD0008F874FEF62E1CE01DF91CF911F910F9180
:101AE000FF90EF90DF900C9476042A813B812330A5
:101AF000310579F783FFEDCF8B899C8901969C8B0B
:101B00008B8B08C089899A8901969A8B898B81E091
:101B10008083D6CFCE010E94A10CDBCF8F929F9203
:101B2000AF92BF92EF92FF920F931F93CF93DF93E9
:101B3000CDB7DEB7A1970FB6F894DEBF0FBECDBF0D
:101B40007C01FA01CB0119A2223008F42AE08E01AF
:101B50000F5D1F4F822E912CA12CB12CBF01A5012E
:101B600094010E94DA10F901CA01015011096A308A
:101B700014F4605D01C0695CD8016C93232B242BA5
:101B8000252B61F7B801C7010E94640CA1960FB61E
:101B9000F894DEBF0FBECDBFDF91CF911F910F91A3
:101BA000FF90EF90BF90AF909F908F900895CF924D
:101BB000DF92EF92FF92CF93DF936C01990FEE08C3
:101BC000FF08F7FE15C06DE28FEB94E00E94990AC2
:101BD000EC0144275527BA014C195D096E097F09AC
:101BE0002AE08FEB94E00E948E0DC80FD91F08C029
:101BF0002AE0B701A6018FEB94E00E948E0DEC0164
:101C000067EE72E08FEB94E00E94640C8C0F9D1FD6
:101C1000DF91CF91FF90EF90DF90CF9008950F93D9
:101C20001F93CF93DF93EC010E94640C8C0167EE4D
:101C300072E0CE010E94640C800F911FDF91CF9162
:101C40001F910F9108950C94640C789484B5826070
:101C500084BD84B5816084BD85B5826085BD85B550
:101C6000816085BD80916E00816080936E001092CE
:101C70008100809181008260809381008091810049
:101C800081608093810080918000816080938000DA
:101C90008091B10084608093B1008091B000816038
:101CA0008093B00080917A00846080937A00809164
:101CB0007A00826080937A0080917A0081608093BC
:101CC0007A0080917A00806880937A001092C10037
:101CD0001092A0051092A1051092A2051092A305E2
:101CE00010925E0510925F051092600510926105DA
:101CF0000E941F026B017C014B015C0128EB820EEC
:101D00002BE0921EA11CB11C0E941F026C157D05C8
:101D10008E059F0528F086169706A806B906A0F737
:101D20008FEB94E090939F0580939E050E94790C21
:101D30000E941F0260935E0570935F0580936005AB
:101D40009093610568ED72E080919E0590919F05EA
:101D50000E94230E0E941F026B017C014B015C015B
:101D60003AE0830E911CA11CB11C0E941F026C154D
:101D70007D058E059F0528F086169706A806B906EC
:101D8000A0F781E08093720561E088E00E94C40BB7
:101D90000E94790C84EA95E00E948805811106C0B2
:101DA0006AEE72E08FEB94E00E940F0EE5E2F3E042
:101DB00080E38083818382838383349644E0E53BA0
:101DC000F407B9F784EF882E99249394A12CB12CB1
:101DD00001E010E0C2E0D0E00E941F02672B682BF8
:101DE000692B41F40E941F02623071058105910543
:101DF00008F40AC10E941F02C090BB04D090BC042A
:101E0000E090BD04F090BE046C157D058E059F0525
:101E100040F46093BB047093BC048093BD04909322
:101E2000BE04C090BB04D090BC04E090BD04F09010
:101E3000BE049B01AC012C193D094E095F096901E3
:101E40007A013AEFC316D104E104F10408F4DCC0CE
:101E50006093BB047093BC048093BD049093BE0454
:101E600080926A0590926B05A0926C05B0926D0508
:101E700010926E0510926F05109270051092710508
:101E80008091620590916305A0916405B09165050C
:101E90008093660590936705A0936805B0936905E4
:101EA0000E941F026093620570936305809364052E
:101EB000909365050E941F0260935E0570935F0515
:101EC00080936005909361050E941F026B017C0165
:101ED00066EF72E080919E0590919F050E94230E0F
:101EE0002AE041E050E060E070E080919E05909132
:101EF0009F050E948E0D6DEF72E080919E0590917E
:101F00009F050E94230E2AE0B701A60180919E053D
:101F100090919F050E948E0D6FEF72E080919E055B
:101F200090919F050E94230E809162059091630518
:101F3000A0916405B0916505B701A601481B590B36
:101F40006A0B7B0B2AE080919E0590919F050E9471
:101F50008E0D6FEF72E080919E0590919F050E941B
:101F6000230E409162055091630560916405709164
:101F700065058091660590916705A0916805B0910F
:101F80006905481B590B6A0B7B0B2AE080919E0563
:101F900090919F050E948E0D61E073E080919E05F7
:101FA00090919F050E94230E0E941F02AB01BC016D
:101FB0002AE080919E0590919F050E948E0D63E01E
:101FC00073E080919E0590919F050E940F0E0E94E4
:101FD0001F026B017C012B013C0145E0440E511CAA
:101FE000611C711C0E941F026C157D058E059F05EA
:101FF00008F061C00E941F02609362057093630540
:1020000080936405909365058091B9049091BA041A
:10201000892B71F40E941F026093B5047093B6047B
:102020008093B7049093B8041093BA040093B90452
:102030008091B9049091BA04019791F50E941F0212
:10204000C090B504D090B604E090B704F090B80406
:10205000DC01CB018C199D09AE09BF098031974283
:10206000A105B10548F484EA95E00E94380588236B
:10207000B9F00E94350614C00E941F02DC01CB019A
:102080008C199D09AE09BF0980329E44A105B10596
:1020900018F40E94E40804C0D093BA04C093B904B1
:1020A0008091B9049091BA04029711F40E941D071F
:1020B0000E94080B91CE461657066806790608F06E
:1020C00091CF98CFEFEBF4E01382128288EE93E089
:1020D000A0E0B0E084839583A683B78382EB91E090
:1020E0009183808385EC90E09587848784EC90E0F1
:1020F0009787868780EC90E0918B808B81EC90E0D5
:10210000938B828B82EC90E0958B848B86EC90E0B5
:10211000978B868B118E128E138E148EECE5F5E064
:1021200016821782108611861286138614861586EB
:1021300016861786108A118A128A138A148A158ABB
:10214000AFEBB6E013961C921E92129715961C9256
:102150001E92149717961C921E92169784EC91E08B
:1021600011969C938E93E4EAF5E0138212828FEF2E
:1021700084838287838714861586108A1786128A3D
:10218000118A148A138AB68BA58B9AE0978B28ED57
:1021900031E0318320831092BE0692E0908F818FD0
:1021A0000895FB01DC0102C005900D9241505040A2
:1021B000D8F70895A1E21A2EAA1BBB1BFD010DC082
:1021C000AA1FBB1FEE1FFF1FA217B307E407F507E7
:1021D00020F0A21BB30BE40BF50B661F771F881FC3
:1021E000991F1A9469F760957095809590959B0159
:1021F000AC01BD01CF010895EE0FFF1F0590F491D2
:10220000E02D099481E090E0F8940C941011FB010A
:10221000DC0102C001900D9241505040D8F7089562
:04222000F894FFCF60
:10222400920092006B743100000000000000000076
:10223400000000000000000000000000000000009A
:1022440000006B6730000000000000000000000088
:10225400000000000000000000000000000000007A
:10226400646E310000000000000000000000000067
:1022740000000000000000000000000000006B747B
:102284003300000000000000000000000000000017
:102294000000000000000000000000006B74320029
:1022A400000000000000000000000000000000002A
:1022B40000000000000000000000050004040D0EF2
:1022C400131516191A1C232526292A2C323400002A
:1022D4000000990A3A0C300AE60A610A3F0A530AD6
:1022E40000000000AF00AB00A7006D019500CD0019
:1022F400C900C50000000000880538050E01BB04B4
:102304009300FD00F5002B025C02EF00EC00E900F5
:10231400E600DF00F200DC00D900D600D300A604FA
:1023240074696E2068696575206775692064656ED7
:102334003A2000525353493A20006E6F646520637B
:102344006F6E20636F20746865206B6574206E6FF8
:102354006920766F692074696E2068696575206DDF
:1023640075632063616F0053656E7420612072652C
:10237400706C79006B6574206E6F69206C616E20DF
:102384006461750072656376206661696C656400DA
:10239400677569206475206C696575206B657420A8
:1023A4006E6F69206E68616E64756C696575007422
:1023B400687563206869656E206B6574206E6F694B
:1023C4002000677569206475206C696575206B65EC
:1023D40074206E6F69206D75632032005253534927
:1023E4002061613A200074687563206869656E2015
:1023F4006B6574206E6F6900564D4450565F317C96
:10240400315F564D4450560D0A00696E697420665A
:1024140061696C656400564D4450455F003A323A38
:0A242400007C005F564D4450450057
:107E0000112484B714BE81FFF0D085E080938100F7
:107E100082E08093C00088E18093C10086E0809377
:107E2000C20080E18093C4008EE0C9D0259A86E02C
:107E300020E33CEF91E0309385002093840096BBD3
:107E4000B09BFECF1D9AA8958150A9F7CC24DD24C4
:107E500088248394B5E0AB2EA1E19A2EF3E0BF2EE7
:107E6000A2D0813461F49FD0082FAFD0023811F036
:107E7000013811F484E001C083E08DD089C08234E0
:107E800011F484E103C0853419F485E0A6D080C0E4
:107E9000853579F488D0E82EFF2485D0082F10E0AE
:107EA000102F00270E291F29000F111F8ED06801E7
:107EB0006FC0863521F484E090D080E0DECF843638
:107EC00009F040C070D06FD0082F6DD080E0C81688
:107ED00080E7D80618F4F601B7BEE895C0E0D1E017
:107EE00062D089930C17E1F7F0E0CF16F0E7DF06D8
:107EF00018F0F601B7BEE89568D007B600FCFDCFD4
:107F0000A601A0E0B1E02C9130E011968C91119780
:107F100090E0982F8827822B932B1296FA010C0160
:107F200087BEE89511244E5F5F4FF1E0A038BF0790
:107F300051F7F601A7BEE89507B600FCFDCF97BE46
:107F4000E89526C08437B1F42ED02DD0F82E2BD052
:107F50003CD0F601EF2C8F010F5F1F4F84911BD097
:107F6000EA94F801C1F70894C11CD11CFA94CF0C13
:107F7000D11C0EC0853739F428D08EE10CD085E9AC
:107F80000AD08FE07ACF813511F488E018D01DD067
:107F900080E101D065CF982F8091C00085FFFCCF94
:107FA0009093C60008958091C00087FFFCCF809118
:107FB000C00084FD01C0A8958091C6000895E0E648
:107FC000F0E098E1908380830895EDDF803219F02E
:107FD00088E0F5DFFFCF84E1DECF1F93182FE3DFCA
:107FE0001150E9F7F2DF1F91089580E0E8DFEE27F6
:047FF000FF270994CA
:027FFE00040479
:0400000300007E007B
:00000001FF