:100000000C9468000C9402030C94DB020C94900096
:100010000C9490000C9490000C9490000C94900020
:100020000C9490000C9490000C9490000C94290374
:100030000C9490000C9490000C9490000C94900000
:100040000C9491020C9490000C940F0B0C94E90A00
:100050000C9490000C9490000C9490000C949000E0
:100060000C9490000C9490000000000023002600E7
:10007000290072740092740048940078C400000053
:100080000000240027002A000000000025002800AE
:100090002B00040404040404040402020202020209
:1000A000030303030303010204081020408001023C
:1000B00004081020010204081020000000080002BB
:1000C000010000030407000000000000000092107F
:1000D00011241FBECFEFD8E0DEBFCDBF13E0A0E0FC
:1000E000B1E0E4E8F2E202C005900D92AE36B1074D
:1000F000D9F727E0AEE6B3E001C01D92AB32B207FC
:10010000E1F710E0C8E6D0E004C02197FE010E94AC
:100110002C11C736D107C9F70E94550E0C94401117
:100120000C94000008958BEF08959FB7F894809188
:100130007803882319F081508093780380917803A5
:10014000811103C08CB58F7B8CBD9FBF08958CB58A
:100150008F778CBD08958CB580688CBD08956EBD79
:1001600000000DB407FEFDCF8EB508959CB59C7FB1
:10017000282F2370922B9CBD2DB582FB992790F9D7
:10018000822F8E7F892B8DBD0895FC01738362833E
:100190000895FC01778366830895FC017583648369
:1001A000089580E00895FC0181850895FC01808513
:1001B0000895FC0187810895FC0186810895FC0162
:1001C000409595854923642B65870895FC016487D4
:1001D0000895FC0163870895FC0162870895FC017E
:1001E00064830895FC0165830895FC0122813381B5
:1001F00023303105D1F381E00895CF93DF93EC01F3
:10020000E881F9810280F381E02DCE0109958823F0
:10021000B9F3DF91CF91089581E00895CF92DF92F5
:10022000EF92FF920F931F93CF93DF93EC017B012B
:100230008A01E881F9810280F381E02D0995D82EA9
:10024000882331F1E114F104D9F001151105C1F051
:10025000CFB6F8948A8D90E00397F801208130E0C2
:10026000281739071CF08A8D84508083F80140815B
:1002700050E0BE01615E7F4FC7010E943711CFBEC3
:100280008FB7F894FE01E65EFE4F10821A8E8FBF84
:100290008D2DDF91CF911F910F91FF90EF90DF9007
:1002A000CF90089580917E0390917F03009711F085
:1002B0000C94BC0C089580917C0390917D03009771
:1002C00011F00C94BC0C089580917A0390917B03FB
:1002D000009711F00C94BC0C0895CF93DF93FC01B0
:1002E000268137812115310579F02130310541F022
:1002F0002230310539F02330310531F49CE005C05E
:1003000094E003C098E001C090E08CB5837F982B07
:100310009CBD84819581019709F04AC08CB58062AB
:100320008CBD8281938101978430910528F4FC0172
:10033000E456FE4FC08101C0C1E08C2F0E94B60080
:10034000DFB7F89480917803811127C0ECE9F0E0E1
:100350008491E0EBF0E09491E82FF0E0EE0FFF1FC6
:10036000E258FF4FA591B491EC91E92321F461E0AB
:100370008AE00E946A0B61E08AE00E94990B8CB5CA
:1003800080618CBD8CB580648CBD61E08DE00E9485
:10039000990B61E08BE00E94990B809178038F5F4D
:1003A00080937803DFBF8C2FDF91CF910C94B60040
:1003B0009CB59F7D9CBDB5CFCF93DF93EC018D891C
:1003C0009E89DC01ED91FC910680F781E02D099575
:1003D00061E08F890E94990B61E08F890E946A0B0E
:1003E00064E670E080E090E00E94D50B81E0DF9150
:1003F000CF9108953FB7F89480918503909186033B
:10040000A0918703B091880326B5A89B05C02F3F14
:1004100019F00196A11DB11D3FBFBA2FA92F982F2A
:100420008827820F911DA11DB11DBC01CD0142E0A5
:10043000660F771F881F991F4A95D1F708952FB728
:10044000F89460918103709182038091830390916D
:1004500084032FBF08958F929F92AF92BF92CF9245
:10046000DF92EF92FF92CF93DF93EC016B010E943A
:100470001F024B015C01E12CF12C0E941F02DC01E8
:10048000CB0188199909AA09BB098C159D05AE05F0
:10049000BF0530F48A819B81039779F381E001C025
:1004A00080E0DF91CF91FF90EF90DF90CF90BF90F1
:1004B000AF909F908F9008958F929F92AF92BF922E
:1004C000CF92DF92EF92FF92CF93DF93EC016B011B
:1004D0000E941F024B015C01E12CF12C0E941F02C3
:1004E000DC01CB0188199909AA09BB098C159D0566
:1004F000AE05BF0550F4E881F9810280F381E02D5B
:10050000CE010995882351F301C080E0DF91CF919E
:10051000FF90EF90DF90CF90BF90AF909F908F9023
:1005200008951F920F920FB60F9211242F933F93AD
:100530008F939F93AF93BF93809181039091820398
:10054000A0918303B09184033091800323E0230FB3
:100550002D3720F40196A11DB11D05C026E8230FFB
:100560000296A11DB11D2093800380938103909377
:100570008203A0938303B0938403809185039091B9
:100580008603A0918703B09188030196A11DB11D38
:100590008093850390938603A0938703B093880389
:1005A000BF91AF919F918F913F912F910F900FBE6F
:1005B0000F901F9018951F920F920FB60F92112453
:1005C0002F933F934F935F936F937F938F939F935B
:1005D000AF93BF93EF93FF93E0910401F091050176
:1005E0000995FF91EF91BF91AF919F918F917F916D
:1005F0006F915F914F913F912F910F900FBE0F9090
:100600001F9018951F920F920FB60F9211242F93DF
:100610003F934F935F936F937F938F939F93AF938A
:10062000BF93EF93FF93E0910201F09103010995CD
:10063000FF91EF91BF91AF919F918F917F916F91BA
:100640005F914F913F912F910F900FBE0F901F9090
:1006500018951F920F920FB60F9211242F933F936C
:100660004F935F936F937F938F939F93AF93BF93BA
:10067000CF93DF93EF93FF9380910200909103005B
:10068000049709F0CCC02091170030E0F901E6543E
:10069000FF4F8491F901EA55FF4FD491F901EE56CD
:1006A000FF4FC491CC2379F081110E94410BEC2FB4
:1006B000F0E0EE0FFF1FE859FF4FA591B491EC91C8
:1006C000ED2381E009F480E0817090911A00892780
:1006D00029F090911F009F5F90931F0090911E0042
:1006E000981761F090B1903510F09DE101C09BE04A
:1006F00020B1920F90B980931E0003C080B18C5E30
:1007000080B980B1803A08F4DEC082B193B1969589
:10071000879593B982B980911F00853028F082B106
:1007200093B1986093B982B980B1805A80B9109220
:100730001F0081B1882309F466C084B18F5F84B93A
:100740008C3008F4C0C082B193B1982F9F73892F69
:1007500086958695887028E0280F281749F0E82F9D
:10076000F0E0E056FE4F3081931719F08F5FF5CF20
:1007700080E020E1829FC001112422B133B196E0D4
:10078000369527959A95E1F7422F36952795369518
:100790002795287038E0320F321749F0E22FF0E049
:1007A000E056FE4F5081451719F02F5FF5CF20E03E
:1007B000822B909169009923B9F0E091690091E052
:1007C0009E0F90936900F0E085A39091690080915D
:1007D00068009817B0F011B881E080931C0080E0A9
:1007E00090E00E94A40C0DC0809368009091680076
:1007F000973008F45EC090916800943408F059C0B6
:10080000DCCF14B860C082B193B188339B4009F04B
:100810005AC081E081B914B81092690054C0809127
:10082000020090910300039709F04DC080916C0085
:1008300091E0980F90936C00811134C0E0916A00B0
:100840008091FB00E81770F080E090E00E94A40C1B
:10085000809113009091140001969093140080935E
:10086000130020C0F0E0E359FF4F608170E08091F9
:100870006B0091E0980F90936B0002C0759567959F
:100880008A95E2F76170809118000E946A0B80914E
:100890006B00863038F010926B0080916A008F5F99
:1008A00080936A0080916C00883068F010926C0030
:1008B0000AC011B880910F0090911000019690939A
:1008C000100080930F00FF91EF91DF91CF91BF91C6
:1008D000AF919F918F917F916F915F914F913F91D8
:1008E0002F910F900FBE0F901F901895FF920F93AE
:1008F0001F93CF93DF93EC01162FF42E0FB7F894CC
:1009000060E08F890E946A0B8D899E89612F6068E3
:10091000DC01ED91FC910190F081E02D0995182FFB
:100920008D899E89DC01ED91FC910190F081E02D93
:100930006F2D099561E08F890E946A0B0FBF812F8F
:10094000DF91CF911F910F91FF900895CF93DF9387
:10095000FC01228133812130310549F0EC0140E076
:1009600061E00E94760481E090E09B838A8381E0CD
:10097000DF91CF910895CF92DF92EF92FF920F9384
:100980001F93CF93DF934C3F08F066C0142F072FBF
:10099000F62EEC01E881F9810484F585E02D0995B6
:1009A000CE010E94760C40E06DE0CE010E947604FC
:1009B0004A8560E0CE010E9476044B8560E0CE015E
:1009C0000E9476044C8560E0CE010E9476044D853D
:1009D00060E0CE010E947604EFB6F89460E08F8963
:1009E0000E946A0B8D899E89DC01ED91FC9101903A
:1009F000F081E02D60E80995CF2CD02E012F015019
:100A000068F08D899E89F60161916F01DC01ED919D
:100A1000FC910190F081E02D0995F1CF61E08F8983
:100A20000E946A0BEFBE44E0410F62E2CE010E94D9
:100A300076048A819B81039789F043E061E0CE01CF
:100A40000E94760440E460E4CE010E94760483E0D4
:100A500090E09B838A8302C080E001C081E0DF9147
:100A6000CF911F910F91FF90EF90DF90CF9008955D
:100A7000CF93DF93CDB7DEB76E970FB6F894DEBF96
:100A80000FBECDBFDC01FB018C91898311968C9147
:100A900011978A8312968C918B8381E38C8390E3E8
:100AA0009D838E8383818F838481888785818987D5
:100AB00081E08A878B878C87809100018D874EE14A
:100AC000BE016F5F7F4F88E096E00E94BB0488E024
:100AD00096E00E94F50064E272E083E295E00E94F5
:100AE000E40D6E960FB6F894DEBF0FBECDBFDF915A
:100AF000CF910895CF93DF93FC012281338123307E
:100B00003105B9F0EC0182819381049771F045E0E1
:100B100061E0CF010E94760440E060E4CE010E94D3
:100B2000760484E090E09B838A83C65EDE4F8881F2
:100B300001C080E0DF91CF9108950F931F93CF9371
:100B4000DF93EC01162F0FB7F89460E08F890E94B5
:100B50006A0B8D899E89612F6F77DC01ED91FC9185
:100B60000190F081E02D09958D899E89DC01ED9140
:100B7000FC910190F081E02D60E00995182F61E073
:100B80008F890E946A0B0FBF812FDF91CF911F9138
:100B90000F910895EF92FF920F931F93CF93DF93DE
:100BA00000D01F92CDB7DEB78C010E94DC01E82E89
:100BB000811102C0E12C90C0F801808D823029F0B3
:100BC0008330C1F7FF24F39401C0F12C40E861E0C9
:100BD000C8010E9476046AE070E080E090E00E9424
:100BE000D50B61E0C8010E949D05803819F760E0CF
:100BF000F801808D0E94990BF801818D8F3F49F497
:100C0000809179038430B0F691E0980F9093790346
:100C1000818FF801818DE82FF0E0EE0FFF1FE6587D
:100C2000FC4F11830083811103C064E671E00AC0A8
:100C3000813019F46BE571E005C0823009F0BACF5C
:100C400062E571E08F2D0E948A0C40E06EE0C801E1
:100C50000E94760440E06FE0C8010E947604C8015B
:100C60000E94760C43E050E062E770E0CE0101960E
:100C70000E94011149816DE1C8010E9476044A81F8
:100C80006EE1C8010E9476044B8166E2C8010E94B1
:100C9000760440E060E2C8010E94760448E061E228
:100CA000C8010E9476044CE666E0C8010E94760402
:100CB00040E867E0C8010E94760440E068E0C801AF
:100CC0000E94760444E06DE4C8010E94760448E87E
:100CD00069E0C8010E9476048E2D0F900F900F904E
:100CE000DF91CF911F910F91FF90EF9008950F9397
:100CF0001F93CF93DF93CDB7DEB7CA51D1400FB664
:100D0000F894DEBF0FBECDBF8BEFC65EDE4F88838B
:100D1000CA51D140AE01465E5E4FBE016F5F7F4F4C
:100D200088E096E00E940E01882309F481C061E00A
:100D300088E00E946A0B61E372E083E295E00E9422
:100D4000F80DBE016F5F7F4F83E295E00E94E40DD6
:100D500064E472E083E295E00E94F80D00911606CB
:100D6000002E000C110BC8010E94AC0D89818B363E
:100D7000A9F58A818E3609F056C08B81803309F03F
:100D800052C0033E1F4F0CF44EC06BE472E083E28E
:100D900095E00E94E40D63E672E083E295E00E9434
:100DA000E40D84E0E6E0F1E0DE01A450BF4F0190E5
:100DB0000D928A95E1F7ECEFF0E0EC0FFD1F349611
:100DC0008AE1DF011D928A95E9F7BE016F5F7F4FCF
:100DD000CE0184509F4F0E94380525C0843719F5F5
:100DE0008A81833601F58B81803371F48C81813364
:100DF000D1F48D818033B9F48E818133A1F4CE0199
:100E000001960E94FA0D0FC0813369F48C81813301
:100E100051F48D81803339F48E81813321F4CE01F8
:100E200001960E942B0E60E088E00E946A0B06C0CB
:100E300060E972E083E295E00E94E40DC65EDE4F59
:100E40000FB6F894DEBF0FBECDBFDF91CF911F91DB
:100E50000F910895CF92DF92EF92FF920F931F931D
:100E6000CF93DF93CDB7DEB7CA51D1400FB6F89418
:100E7000DEBF0FBECDBF80917603909177030397BD
:100E80000CF067C00E941F02C0907203D0907303E1
:100E9000E0907403F0907503DC01CB018C199D097F
:100EA000AE09BF09813A9F40A105B10558F00E94E3
:100EB0001F02609372037093730380937403909383
:100EC000750347C00E941F02DC01CB018C199D09EC
:100ED000AE09BF09803A9F40A105B105D1F56CE983
:100EE00072E083E295E00E94E40D84E0E4E2F1E048
:100EF000DE01119601900D928A95E1F7FE0135967B
:100F00008AE1DF011D928A95E9F781E38C8390E302
:100F10009D838E834EE1BE016F5F7F4F88E096E038
:100F20000E94BB0488E096E00E94F5000E941F0228
:100F300060937203709373038093740390937503AB
:100F40008091760390917703019690937703809335
:100F5000760388E096E00E947A05882309F432C17E
:100F60008BEFC65EDE4F8883CA51D140AE01465E2C
:100F70005E4FBE016F5F7F4F88E096E00E940E01DA
:100F8000882309F419C161E088E00E946A0B61E3DB
:100F900072E083E295E00E94F80DBE016F5F7F4F23
:100FA00083E295E00E94E40D64E472E083E295E060
:100FB0000E94F80D80911606082E000C990B0E94D5
:100FC000AC0D89818B3609F0CDC08A81873609F056
:100FD0009BC08B81813309F0EAC08C81813309F099
:100FE000E6C08D81803309F0E2C08E81813309F043
:100FF000DEC065EC72E083E295E00E94F80D8E01A0
:101000000F5F1F4F7E01B0E1EB0EF11CF801419123
:101010008F0150E060E070E02AE083E295E00E94FA
:10102000630D69E472E083E295E00E94F80DE0163A
:10103000F10661F769E472E083E295E00E94E40D55
:1010400080E090E03AE1F32E0CEF10E00C0F1D1F52
:101050000C5F1F4F40E3E42EFC01EE0FFF1FEE0F6D
:10106000FF1FE757FC4F2081213309F047C05F8104
:101070003181531343C04885328143133FC03985C2
:10108000638136133BC084E0E2E4F1E0DE01A4506A
:10109000BF4F01900D928A95E1F7D801EF2D1D9277
:1010A000EA95E9F7C150DF4F2883CF5FD040C050A9
:1010B000DF4FE882C050D140CF5FDE4F2883C15060
:1010C000D140CE5FDE4F5883C250D140CD5FDE4F5E
:1010D0004883C350D140CC5FDE4F3883C450D140E9
:1010E0004EE1BE0164507F4F88E096E00E94BB0451
:1010F00088E096E00E94F50085E690E0019684364F
:1011000091050CF4A9CF53C08E3609F050C08B81E5
:10111000803309F04CC065EE72E083E295E00E94F6
:10112000E40D84E0E0E6F1E0DE01A450BF4F019061
:101130000D928A95E1F7ECEFF0E0EC0FFD1F34968D
:101140008AE1DF011D928A95E9F7BE016F5F7F4F4B
:10115000CE0184509F4F0E94380560E088E00E94D5
:101160006A0B25C0843719F58A81833601F58B8196
:10117000803371F48C818133D1F48D818033B9F463
:101180008E818133A1F4CE0101960E94FA0D0FC029
:10119000813369F48C81813351F48D81803339F44A
:1011A0008E81813321F4CE0101960E942B0E60E0E6
:1011B00088E00E946A0B06C060E972E083E295E075
:1011C0000E94E40DC65EDE4F0FB6F894DEBF0FBE80
:1011D000CDBFDF91CF911F910F91FF90EF90DF90E6
:1011E000CF900895CF92DF92EF92FF920F931F93CB
:1011F000CF93DF93CDB7DEB7CA51D1400FB6F89485
:10120000DEBF0FBECDBF0E941F02C0906E03D09004
:101210006F03E0907003F0907103DC01CB018C1937
:101220009D09AE09BF09813A9F40A105B105A0F50E
:101230000E941F02DC01CB018C199D09AE09BF0978
:10124000803A9F40A105B10589F568EF72E083E21D
:1012500095E00E94E40D84E0EEE7F1E0DE011196F6
:1012600001900D928A95E1F7FE0135968AE1DF0142
:101270001D928A95E9F781E38C8390E39D838E83A9
:101280004EE1BE016F5F7F4F88E096E00E94BB0495
:1012900088E096E00E94F5000E941F0260936E03B2
:1012A00070936F03809370039093710388E096E0CE
:1012B0000E947A05882309F494C08BEFC65EDE4F46
:1012C0008883CA51D140AE01465E5E4FBE016F5F5A
:1012D0007F4F88E096E00E940E01882309F47BC0CE
:1012E00061E088E00E946A0B61E372E083E295E0CE
:1012F0000E94F80DBE016F5F7F4F83E295E00E9470
:10130000E40D64E472E083E295E00E94F80D009140
:101310001606002E000C110BC8010E94AC0D89812D
:101320008B3679F58A818E3609F050C08B818033F7
:1013300009F04CC0023E1F4F0CF048C063E273E05E
:1013400083E295E00E94E40D84E0EEE7F1E0DE0147
:10135000A450BF4F01900D928A95E1F7ECEFF0E0B9
:10136000EC0FFD1F34968AE1DF011D928A95E9F7A3
:10137000BE016F5F7F4FCE0184509F4F0E943805A2
:1013800025C0843719F58A81833601F58B81803336
:1013900071F48C818133D1F48D818033B9F48E81E5
:1013A0008133A1F4CE0101960E94FA0D0FC0813362
:1013B00069F48C81813351F48D81803339F48E81CD
:1013C000813321F4CE0101960E942B0E60E088E06B
:1013D0000E946A0B06C060E972E083E295E00E9419
:1013E000E40DC65EDE4F0FB6F894DEBF0FBECDBF74
:1013F000DF91CF911F910F91FF90EF90DF90CF90F1
:101400000895089580E090E00895FC01538D448D87
:10141000252F30E0842F90E0821B930B541710F09F
:10142000CF96089501970895FC01918D828D9817AC
:1014300061F0828DDF01A80FB11D5D968C91928DB8
:101440009F5F9F73928F90E008958FEF9FEF0895B5
:10145000FC01918D828D981731F0828DE80FF11D7E
:10146000858D90E008958FEF9FEF0895FC01918D99
:10147000228D892F90E0805C9F4F821B91098F7392
:101480009927089583E295E00E94360A21E0892B8E
:1014900009F420E0822F0895FC01848DDF01A80F5C
:1014A000B11DA35ABF4F2C91848D90E001968F738C
:1014B0009927848FA689B7892C93A089B1898C91AB
:1014C000837080648C93938D848D981306C00288FA
:1014D000F389E02D80818F7D80830895EF92FF92C4
:1014E0000F931F93CF93DF93EC0181E0888F9B8D47
:1014F0008C8D981305C0E889F989808185FD26C007
:10150000F62E0B8D10E00F5F1F4F0F731127E02E8B
:101510008C8DE8120CC00FB607FCFACFE889F98968
:10152000808185FFF5CFCE010E944C0AF1CF8B8DD3
:10153000FE01E80FF11DE35AFF4FF0829FB7F894C8
:101540000B8FEA89FB89808180620AC09FB7F8947B
:10155000EE89FF896083E889F989808183708064DE
:1015600080839FBF81E090E0DF91CF911F910F9129
:10157000FF90EF900895CF93DF93EC01888D88233F
:10158000C9F0EA89FB89808185FD05C0A889B989F0
:101590008C9186FD0FC00FB607FCF5CF808185FFCB
:1015A000F2CFA889B9898C9185FFEDCFCE010E9439
:1015B0004C0AE7CFDF91CF91089580E090E0892B2E
:1015C00029F00E94420A81110C94000008950E94A3
:1015D00032111F920F920FB60F9211242F933F9347
:1015E0004F935F936F937F938F939F93AF93BF932B
:1015F000EF93FF9383E295E00E944C0AFF91EF91F5
:10160000BF91AF919F918F917F916F915F914F911A
:101610003F912F910F900FBE0F901F9018951F9222
:101620000F920FB60F9211242F938F939F93EF93E6
:10163000FF93E0913305F09134058081E091390505
:10164000F0913A0582FD12C0908180913C058F5F38
:101650008F7320913D05821751F0E0913C05F0E039
:10166000ED5DFA4F958F80933C0501C08081FF911D
:10167000EF919F918F912F910F900FBE0F901F9020
:101680001895833081F028F4813099F08230A1F0F0
:1016900008958730A9F08830B9F08430D1F4809172
:1016A00080008F7D03C0809180008F7780938000C1
:1016B000089584B58F7702C084B58F7D84BD089569
:1016C0008091B0008F7703C08091B0008F7D8093B0
:1016D000B00008951F93CF93DF93282F30E0F901D6
:1016E000E654FF4F8491F901EA55FF4FD491F90177
:1016F000EE56FF4FC491CC23C1F0162F81110E94EA
:10170000410BEC2FF0E0EE0FFF1FE857FF4FA591C4
:10171000B4919FB7F894111104C08C91D095D8233F
:1017200002C0EC91DE2BDC939FBFDF91CF911F9124
:101730000895CF93DF9390E0FC01EA55FF4F249189
:10174000FC01EE56FF4F8491882361F190E0880FF1
:10175000991FFC01E258FF4FC591D491FC01E85755
:10176000FF4FA591B491611109C09FB7F89488818A
:10177000209582238883EC912E230BC0623061F484
:101780009FB7F8948881322F309583238883EC911A
:101790002E2B2C939FBF06C08FB7F894E8812E2B79
:1017A00028838FBFDF91CF9108958F929F92AF9240
:1017B000BF92CF92DF92EF92FF926B017C010E9469
:1017C000FA014B015C01C114D104E104F104F1F010
:1017D0000E94FA01DC01CB0188199909AA09BB0909
:1017E000883E9340A105B10570F321E0C21AD108EB
:1017F000E108F10888EE880E83E0981EA11CB11C58
:10180000C114D104E104F10419F7DDCFFF90EF908A
:10181000DF90CF90BF90AF909F908F900895CF9220
:10182000DF92EF92FF920F931F93CF93DF936C01A0
:101830007A018B01C0E0D0E0CE15DF0581F0D80140
:101840006D918D01D601ED91FC910190F081E02D1B
:10185000C6010995892B11F02196EECF7E01C701B3
:10186000DF91CF911F910F91FF90EF90DF90CF907C
:1018700008956115710579F0FB0101900020E9F7E9
:101880003197AF01461B570BDC01ED91FC910280B3
:10189000F381E02D099480E090E00895E3E2F5E023
:1018A000A089B18982E08C93A485B5851C92A68518
:1018B000B7858FEC8C93108EA489B58986E08C93C4
:1018C000A289B3898C9180618C93A289B3898C9110
:1018D00088608C93A289B3898C9180688C930288EC
:1018E000F389E02D80818F7D80830895CF93DF93EE
:1018F000FC01228133812230310549F0EC0141E0C5
:1019000061E00E94760482E090E09B838A83DF910D
:10191000CF9108958230B8F4E82FF0E0EE0FFF1F6A
:10192000EE5FFE4F71836083813039F080916900F2
:10193000836080936900E89A0895809169008C60C3
:1019400080936900E99A0895CF93DF93FC01228187
:1019500033812230310569F0EC01638D818D0E9465
:101960006A0B60E0888D0E946A0B82E090E09B83A6
:101970008A83DF91CF910895DF92EF92FF920F93C8
:101980001F93CF93DF93EC0162E10E949D052A81B2
:101990003B812430310521F4982F907A09F069C0F9
:1019A0002A813B812430310509F074C086FF72C062
:1019B00063E1CE010E949D05082F60E1CE010E94E7
:1019C0009D05482F6DE0CE010E947604DFB6F894A5
:1019D00060E08F890E946A0B8D899E89DC01ED9100
:1019E000FC910190F081E02D60E009957E01BBE162
:1019F000EB0EF11C102F112379F08D899E89DC01EB
:101A0000ED91FC910190F081E02D60E00995F701E6
:101A100081937F011150EFCF61E08F890E946A0BA3
:101A2000DFBE0A8F4FEF62E1CE010E9476046AE1C9
:101A3000CE010E949D0589588E878A8DFE01E65E43
:101A4000FE4F843090F08B8D8E838C8D8F838D8DA7
:101A500088878E8D89878D81811129C09E818C8197
:101A6000981729F18E818F3F11F18081882331F001
:101A700026C08F8598890196988B8F874FEF62E1FA
:101A8000CE01DF91CF911F910F91FF90EF90DF90EA
:101A90000C9476042A813B812330310579F783FF4A
:101AA000EDCF8B899C8901969C8B8B8B08C0898993
:101AB0009A8901969A8B898B81E08083D6CFCE015B
:101AC0000E94760CDBCF8F929F92AF92BF92EF92E3
:101AD000FF920F931F93CF93DF93CDB7DEB7A197FC
:101AE0000FB6F894DEBF0FBECDBF7C01FA01CB016B
:101AF00019A2223008F42AE08E010F5D1F4F822EBA
:101B0000912CA12CB12CBF01A50194010E940A11B6
:101B1000F901CA01015011096A3014F4605D01C075
:101B2000695CD8016C93232B242B252B61F7B8011A
:101B3000C7010E94390CA1960FB6F894DEBF0FBE04
:101B4000CDBFDF91CF911F910F91FF90EF90BF908C
:101B5000AF909F908F900895CF92DF92EF92FF9277
:101B6000CF93DF936C01990FEE08FF08F7FE15C0C5
:101B70006DE283E295E00E946E0AEC01442755274E
:101B8000BA014C195D096E097F092AE083E295E0EC
:101B90000E94630DC80FD91F08C02AE0B701A60133
:101BA00083E295E00E94630DEC016AE473E083E256
:101BB00095E00E94390C8C0F9D1FDF91CF91FF9013
:101BC000EF90DF90CF9008950F931F93CF93DF9303
:101BD000EC010E94390C8C016AE473E0CE010E9492
:101BE000390C800F911FDF91CF911F910F910895B4
:101BF0000C94390C1F93CF93DF93EC0180E090E0BD
:101C000011E3FC01EE0FFF1FEE0FFF1FE757FC4F24
:101C100020812033C1F410838E8181838F81828360
:101C20008885838362E072E083E295E00E94E40DA0
:101C300080910001909101010196909301018093A0
:101C4000000185E690E0019684369105D4F2DF919B
:101C5000CF911F9108950F931F93CF93DF938C0122
:101C600062E172E083E295E00E94F80DE801015F15
:101C70001F4F499150E060E070E02AE083E295E078
:101C80000E94630D69E472E083E295E00E94F80D22
:101C9000C017D10771F769E472E083E295E0DF9144
:101CA000CF911F910F910C94E40D789484B58260CC
:101CB00084BD84B5816084BD85B5826085BD85B5F0
:101CC000816085BD80916E00816080936E0010926E
:101CD00081008091810082608093810080918100E9
:101CE000816080938100809180008160809380007A
:101CF0008091B10084608093B1008091B0008160D8
:101D00008093B00080917A00846080937A00809103
:101D10007A00826080937A0080917A00816080935B
:101D20007A0080917A00806880937A001092C100D6
:101D300010920406109205061092060610920706ED
:101D40001092C2051092C3051092C4051092C505E9
:101D50000E941F026B017C014B015C0128EB820E8B
:101D60002BE0921EA11CB11C0E941F026C157D0568
:101D70008E059F0528F086169706A806B906A0F7D7
:101D800083E295E090930306809302060E944E0C36
:101D90000E941F026093C2057093C3058093C4051F
:101DA0009093C5056BE373E0809102069091030662
:101DB0000E94F80D0E941F026B017C014B015C0127
:101DC0003AE0830E911CA11CB11C0E941F026C15ED
:101DD0007D058E059F0528F086169706A806B9068C
:101DE000A0F781E08093D60561E088E00E94990B1E
:101DF0000E944E0C88E096E00E94CA05811106C040
:101E00006DE473E083E295E00E94E40DE9E8F3E01D
:101E100080E38083818382838383349645E0E93144
:101E2000F407B9F784EF882E99249394A12CB12C50
:101E300001E010E0C2E0D0E00E941F02672B682B97
:101E4000692B41F40E941F026230710581059105E2
:101E500008F40AC10E941F02C0901F05D0902005FF
:101E6000E0902105F09022056C157D058E059F05FB
:101E700040F460931F057093200580932105909393
:101E80002205C0901F05D0902005E0902105F0901C
:101E900022059B01AC012C193D094E095F0969011E
:101EA0007A013AEFC316D104E104F10408F4DCC06E
:101EB00060931F0570932005809321059093220560
:101EC0008092CE059092CF05A092D005B092D10518
:101ED0001092D2051092D3051092D4051092D50518
:101EE0008091C6059091C705A091C805B091C9051C
:101EF0008093CA059093CB05A093CC05B093CD05F4
:101F00000E941F026093C6057093C7058093C805A1
:101F10009093C9050E941F026093C2057093C30588
:101F20008093C4059093C5050E941F026B017C013C
:101F300069E573E080910206909103060E94F80D16
:101F40002AE041E050E060E070E08091020690916C
:101F500003060E94630D60E673E080910206909193
:101F600003060E94F80D2AE0B701A601809102063F
:101F7000909103060E94630D62E673E08091020671
:101F8000909103060E94F80D8091C6059091C705B7
:101F9000A091C805B091C905B701A601481B590B0E
:101FA0006A0B7B0B2AE080910206909103060E9447
:101FB000630D62E673E080910206909103060E9431
:101FC000F80D4091C6055091C7056091C805709104
:101FD000C9058091CA059091CB05A091CC05B0911F
:101FE000CD05481B590B6A0B7B0B2AE0809102063A
:101FF000909103060E94630D64E673E080910206EF
:10200000909103060E94F80D0E941F02AB01BC01D3
:102010002AE080910206909103060E94630D66E615
:1020200073E080910206909103060E94E40D0E94E5
:102030001F026B017C012B013C0145E0440E511C49
:10204000611C711C0E941F026C157D058E059F0589
:1020500008F061C00E941F026093C6057093C70517
:102060008093C8059093C90580911D0590911E0528
:10207000892B71F40E941F026093190570931A0551
:1020800080931B0590931C0510931E0500931D055E
:1020900080911D0590911E05019791F50E941F02E8
:1020A000C0901905D0901A05E0901B05F0901C0512
:1020B000DC01CB018C199D09AE09BF098031974223
:1020C000A105B10548F488E096E00E947A058823CE
:1020D000B9F00E94770614C00E941F02DC01CB01F8
:1020E0008C199D09AE09BF0980329E44A105B10536
:1020F00018F40E94F20804C0D0931E05C0931D0579
:1021000080911D0590911E05029711F40E942A07E7
:102110000E94DD0A91CE461657066806790608F039
:1021200091CF98CFE3E2F5E01382128288EE93E03C
:10213000A0E0B0E084839583A683B78384EB91E02D
:102140009183808385EC90E09587848784EC90E090
:102150009787868780EC90E0918B808B81EC90E074
:10216000938B828B82EC90E0958B848B86EC90E055
:10217000978B868B118E128E138E148EE0ECF5E009
:10218000168217821086118612861386148615868B
:1021900016861786108A118A128A138A148A158A5B
:1021A000A3E2B7E013961C921E92129715961C920A
:1021B0001E92149717961C921E92169786EC91E029
:1021C00011969C938E93E8E0F6E0138212828FEFD3
:1021D00084838287838714861586108A1786128ADD
:1021E000118A148A138AB68BA58B9AE0978B2AEDF5
:1021F00031E0318320831092220792E0908F818F0B
:102200000895FB01DC0102C005900D924150504041
:10221000D8F70895A1E21A2EAA1BBB1BFD010DC021
:10222000AA1FBB1FEE1FFF1FA217B307E407F50786
:1022300020F0A21BB30BE40BF50B661F771F881F62
:10224000991F1A9469F760957095809590959B01F8
:10225000AC01BD01CF010895EE0FFF1F0590F49171
:10226000E02D099481E090E0F8940C944011FB017A
:10227000DC0102C001900D9241505040D8F7089502
:04228000F894FFCF00
:102284000100920092006B74310000000000000015
:10229400000000000000000000000000000000003A
:1022A400000000006B673000000000000000000028
:1022B400000000000000000000000000000000001A
:1022C4000000646E31000000000000000000000007
:1022D40000000000000000000000000000000000FA
:1022E4006B743300000000000000000000000000D8
:1022F40000000000000000000000000000006B74FB
:102304003200000000000000000000000000000097
:1023140000000000000000000000000005000404AC
:102324000D0E131516191A1C232526292A2C3234AE
:10233400000000006E0A0F0C050ABB0A360A140AD4
:10234400280A00000000AF00AB00A7006D01950053
:10235400CD00C900C50000000000CA057A050E01C1
:10236400BB049300FD00F5002B025C02EF00EC00BF
:10237400E900E600DF00F200DC00D900D600D3005B
:10238400A6046C7575206964206E6F646520636FA4
:102394006E0064696120636869204944206E6F643B
:1023A400653A200053656E742061207265706C7903
:1023B4000074696E206869657520677569206465B5
:1023C4006E3A2000525353493A20007468756320D2
:1023D4006869656E206B6574206E6F69206D756326
:1023E4002031006E6F646520636F6E20636F20740C
:1023F4006865206B6574206E6F6920766F69207440
:10240400696E2068696575206D75632063616F006E
:1024140072656376206661696C656400677569201E
:102424006475206C69657520796575206361752014
:102434006E6F646520636F6E206775692064752014
:102444006C696575006475206C696575206E6861DA
:102454006E2064756F63207475206E6F64652063ED
:102464006F6E3A200074687563206869656E206B2E
:102474006574206E6F692000677569206475206C2F
:102484006965752079657520636175206E6F646573
:1024940020636F6E206B6574206E6F69206D7563A9
:1024A40020320074687563206869656E206B6574FA
:1024B400206E6F69206D7563203200564D4450566E
:1024C4005F317C315F564D4450560D0A00696E6988
:1024D40074206661696C656400564D4450455F0024
:0E24E4003A323A007C005F564D4450450000ED
:107E0000112484B714BE81FFF0D085E080938100F7
:107E100082E08093C00088E18093C10086E0809377
:107E2000C20080E18093C4008EE0C9D0259A86E02C
:107E300020E33CEF91E0309385002093840096BBD3
:107E4000B09BFECF1D9AA8958150A9F7CC24DD24C4
:107E500088248394B5E0AB2EA1E19A2EF3E0BF2EE7
:107E6000A2D0813461F49FD0082FAFD0023811F036
:107E7000013811F484E001C083E08DD089C08234E0
:107E800011F484E103C0853419F485E0A6D080C0E4
:107E9000853579F488D0E82EFF2485D0082F10E0AE
:107EA000102F00270E291F29000F111F8ED06801E7
:107EB0006FC0863521F484E090D080E0DECF843638
:107EC00009F040C070D06FD0082F6DD080E0C81688
:107ED00080E7D80618F4F601B7BEE895C0E0D1E017
:107EE00062D089930C17E1F7F0E0CF16F0E7DF06D8
:107EF00018F0F601B7BEE89568D007B600FCFDCFD4
:107F0000A601A0E0B1E02C9130E011968C91119780
:107F100090E0982F8827822B932B1296FA010C0160
:107F200087BEE89511244E5F5F4FF1E0A038BF0790
:107F300051F7F601A7BEE89507B600FCFDCF97BE46
:107F4000E89526C08437B1F42ED02DD0F82E2BD052
:107F50003CD0F601EF2C8F010F5F1F4F84911BD097
:107F6000EA94F801C1F70894C11CD11CFA94CF0C13
:107F7000D11C0EC0853739F428D08EE10CD085E9AC
:107F80000AD08FE07ACF813511F488E018D01DD067
:107F900080E101D065CF982F8091C00085FFFCCF94
:107FA0009093C60008958091C00087FFFCCF809118
:107FB000C00084FD01C0A8958091C6000895E0E648
:107FC000F0E098E1908380830895EDDF803219F02E
:107FD00088E0F5DFFFCF84E1DECF1F93182FE3DFCA
:107FE0001150E9F7F2DF1F91089580E0E8DFEE27F6
:047FF000FF270994CA
:027FFE00040479
:0400000300007E007B
:00000001FF